{
  "_format": "hh-sol-artifact-1",
  "contractName": "Staking",
  "sourceName": "contracts/Staking.sol",
  "abi": [
    {
      "inputs": [],
      "name": "AccessControlBadConfirmation",
      "type": "error"
    },
    {
      "inputs": [
        {
          "internalType": "address",
          "name": "account",
          "type": "address"
        },
        {
          "internalType": "bytes32",
          "name": "neededRole",
          "type": "bytes32"
        }
      ],
      "name": "AccessControlUnauthorizedAccount",
      "type": "error"
    },
    {
      "inputs": [
        {
          "internalType": "address",
          "name": "target",
          "type": "address"
        }
      ],
      "name": "AddressEmptyCode",
      "type": "error"
    },
    {
      "inputs": [
        {
          "internalType": "address",
          "name": "account",
          "type": "address"
        }
      ],
      "name": "AddressInsufficientBalance",
      "type": "error"
    },
    {
      "inputs": [],
      "name": "EnforcedPause",
      "type": "error"
    },
    {
      "inputs": [],
      "name": "ExpectedPause",
      "type": "error"
    },
    {
      "inputs": [],
      "name": "FailedInnerCall",
      "type": "error"
    },
    {
      "inputs": [],
      "name": "InvalidInitialization",
      "type": "error"
    },
    {
      "inputs": [],
      "name": "NotInitializing",
      "type": "error"
    },
    {
      "inputs": [],
      "name": "ReentrancyGuardReentrantCall",
      "type": "error"
    },
    {
      "inputs": [
        {
          "internalType": "address",
          "name": "token",
          "type": "address"
        }
      ],
      "name": "SafeERC20FailedOperation",
      "type": "error"
    },
    {
      "inputs": [],
      "name": "Staking_AlreadyWithdrawn",
      "type": "error"
    },
    {
      "inputs": [],
      "name": "Staking_AmountShouldBeGreaterThanZero",
      "type": "error"
    },
    {
      "inputs": [],
      "name": "Staking_EmptyIndexes",
      "type": "error"
    },
    {
      "inputs": [],
      "name": "Staking_InvalidDefaultAdmin",
      "type": "error"
    },
    {
      "inputs": [
        {
          "internalType": "uint256",
          "name": "index",
          "type": "uint256"
        }
      ],
      "name": "Staking_InvalidIndex",
      "type": "error"
    },
    {
      "inputs": [],
      "name": "Staking_InvalidInputLength",
      "type": "error"
    },
    {
      "inputs": [],
      "name": "Staking_InvalidLockPeriod",
      "type": "error"
    },
    {
      "inputs": [],
      "name": "Staking_InvalidMoxieBondingCurve",
      "type": "error"
    },
    {
      "inputs": [],
      "name": "Staking_InvalidMoxieToken",
      "type": "error"
    },
    {
      "inputs": [],
      "name": "Staking_InvalidSubject",
      "type": "error"
    },
    {
      "inputs": [],
      "name": "Staking_InvalidSubjectToken",
      "type": "error"
    },
    {
      "inputs": [],
      "name": "Staking_InvalidTokenManager",
      "type": "error"
    },
    {
      "inputs": [
        {
          "internalType": "uint256",
          "name": "index",
          "type": "uint256"
        },
        {
          "internalType": "uint256",
          "name": "currentTime",
          "type": "uint256"
        },
        {
          "internalType": "uint256",
          "name": "unlockTime",
          "type": "uint256"
        }
      ],
      "name": "Staking_LockNotExpired",
      "type": "error"
    },
    {
      "inputs": [],
      "name": "Staking_LockPeriodAlreadySet",
      "type": "error"
    },
    {
      "inputs": [
        {
          "internalType": "uint256",
          "name": "index",
          "type": "uint256"
        }
      ],
      "name": "Staking_NotOwner",
      "type": "error"
    },
    {
      "inputs": [
        {
          "internalType": "uint256",
          "name": "index",
          "type": "uint256"
        }
      ],
      "name": "Staking_NotSameUser",
      "type": "error"
    },
    {
      "inputs": [
        {
          "internalType": "uint256",
          "name": "index",
          "type": "uint256"
        }
      ],
      "name": "Staking_SubjectsDoesNotMatch",
      "type": "error"
    },
    {
      "anonymous": false,
      "inputs": [
        {
          "indexed": false,
          "internalType": "uint64",
          "name": "version",
          "type": "uint64"
        }
      ],
      "name": "Initialized",
      "type": "event"
    },
    {
      "anonymous": false,
      "inputs": [
        {
          "indexed": true,
          "internalType": "address",
          "name": "_user",
          "type": "address"
        },
        {
          "indexed": true,
          "internalType": "address",
          "name": "_subject",
          "type": "address"
        },
        {
          "indexed": true,
          "internalType": "address",
          "name": "_subjectToken",
          "type": "address"
        },
        {
          "indexed": false,
          "internalType": "uint256",
          "name": "_index",
          "type": "uint256"
        },
        {
          "indexed": false,
          "internalType": "uint256",
          "name": "_amount",
          "type": "uint256"
        },
        {
          "indexed": false,
          "internalType": "uint256",
          "name": "_unlockTimeInSec",
          "type": "uint256"
        },
        {
          "indexed": false,
          "internalType": "uint256",
          "name": "_lockPeriodInSec",
          "type": "uint256"
        },
        {
          "indexed": false,
          "internalType": "bool",
          "name": "_isBuy",
          "type": "bool"
        }
      ],
      "name": "Lock",
      "type": "event"
    },
    {
      "anonymous": false,
      "inputs": [
        {
          "indexed": true,
          "internalType": "address",
          "name": "_user",
          "type": "address"
        },
        {
          "indexed": true,
          "internalType": "address",
          "name": "_subject",
          "type": "address"
        },
        {
          "indexed": true,
          "internalType": "address",
          "name": "_subjectToken",
          "type": "address"
        },
        {
          "indexed": false,
          "internalType": "uint256[]",
          "name": "_indexes",
          "type": "uint256[]"
        },
        {
          "indexed": false,
          "internalType": "uint256",
          "name": "_amount",
          "type": "uint256"
        }
      ],
      "name": "LockExtended",
      "type": "event"
    },
    {
      "anonymous": false,
      "inputs": [
        {
          "indexed": true,
          "internalType": "uint256",
          "name": "_lockPeriodInSec",
          "type": "uint256"
        },
        {
          "indexed": true,
          "internalType": "bool",
          "name": "_allowed",
          "type": "bool"
        }
      ],
      "name": "LockPeriodUpdated",
      "type": "event"
    },
    {
      "anonymous": false,
      "inputs": [
        {
          "indexed": false,
          "internalType": "address",
          "name": "account",
          "type": "address"
        }
      ],
      "name": "Paused",
      "type": "event"
    },
    {
      "anonymous": false,
      "inputs": [
        {
          "indexed": true,
          "internalType": "bytes32",
          "name": "role",
          "type": "bytes32"
        },
        {
          "indexed": true,
          "internalType": "bytes32",
          "name": "previousAdminRole",
          "type": "bytes32"
        },
        {
          "indexed": true,
          "internalType": "bytes32",
          "name": "newAdminRole",
          "type": "bytes32"
        }
      ],
      "name": "RoleAdminChanged",
      "type": "event"
    },
    {
      "anonymous": false,
      "inputs": [
        {
          "indexed": true,
          "internalType": "bytes32",
          "name": "role",
          "type": "bytes32"
        },
        {
          "indexed": true,
          "internalType": "address",
          "name": "account",
          "type": "address"
        },
        {
          "indexed": true,
          "internalType": "address",
          "name": "sender",
          "type": "address"
        }
      ],
      "name": "RoleGranted",
      "type": "event"
    },
    {
      "anonymous": false,
      "inputs": [
        {
          "indexed": true,
          "internalType": "bytes32",
          "name": "role",
          "type": "bytes32"
        },
        {
          "indexed": true,
          "internalType": "address",
          "name": "account",
          "type": "address"
        },
        {
          "indexed": true,
          "internalType": "address",
          "name": "sender",
          "type": "address"
        }
      ],
      "name": "RoleRevoked",
      "type": "event"
    },
    {
      "anonymous": false,
      "inputs": [
        {
          "indexed": false,
          "internalType": "address",
          "name": "account",
          "type": "address"
        }
      ],
      "name": "Unpaused",
      "type": "event"
    },
    {
      "anonymous": false,
      "inputs": [
        {
          "indexed": true,
          "internalType": "address",
          "name": "_user",
          "type": "address"
        },
        {
          "indexed": true,
          "internalType": "address",
          "name": "_subject",
          "type": "address"
        },
        {
          "indexed": true,
          "internalType": "address",
          "name": "_subjectToken",
          "type": "address"
        },
        {
          "indexed": false,
          "internalType": "uint256[]",
          "name": "_indexes",
          "type": "uint256[]"
        },
        {
          "indexed": false,
          "internalType": "uint256",
          "name": "_amount",
          "type": "uint256"
        }
      ],
      "name": "Withdraw",
      "type": "event"
    },
    {
      "inputs": [],
      "name": "CHANGE_LOCK_DURATION",
      "outputs": [
        {
          "internalType": "bytes32",
          "name": "",
          "type": "bytes32"
        }
      ],
      "stateMutability": "view",
      "type": "function"
    },
    {
      "inputs": [],
      "name": "DEFAULT_ADMIN_ROLE",
      "outputs": [
        {
          "internalType": "bytes32",
          "name": "",
          "type": "bytes32"
        }
      ],
      "stateMutability": "view",
      "type": "function"
    },
    {
      "inputs": [],
      "name": "PAUSE_ROLE",
      "outputs": [
        {
          "internalType": "bytes32",
          "name": "",
          "type": "bytes32"
        }
      ],
      "stateMutability": "view",
      "type": "function"
    },
    {
      "inputs": [
        {
          "internalType": "address",
          "name": "_subject",
          "type": "address"
        },
        {
          "internalType": "uint256",
          "name": "_depositAmount",
          "type": "uint256"
        },
        {
          "internalType": "uint256",
          "name": "_minReturnAmountAfterFee",
          "type": "uint256"
        },
        {
          "internalType": "uint256",
          "name": "_lockPeriodInSec",
          "type": "uint256"
        }
      ],
      "name": "buyAndLock",
      "outputs": [
        {
          "internalType": "uint256",
          "name": "amount_",
          "type": "uint256"
        },
        {
          "internalType": "uint256",
          "name": "unlockTimeInSec_",
          "type": "uint256"
        }
      ],
      "stateMutability": "nonpayable",
      "type": "function"
    },
    {
      "inputs": [
        {
          "internalType": "address[]",
          "name": "_subjects",
          "type": "address[]"
        },
        {
          "internalType": "uint256[]",
          "name": "_depositAmounts",
          "type": "uint256[]"
        },
        {
          "internalType": "uint256[]",
          "name": "_minReturnAmountsAfterFee",
          "type": "uint256[]"
        },
        {
          "internalType": "uint256",
          "name": "_lockPeriodsInSec",
          "type": "uint256"
        }
      ],
      "name": "buyAndLockMultiple",
      "outputs": [
        {
          "internalType": "uint256[]",
          "name": "amounts_",
          "type": "uint256[]"
        },
        {
          "internalType": "uint256",
          "name": "unlockTimeInSec_",
          "type": "uint256"
        }
      ],
      "stateMutability": "nonpayable",
      "type": "function"
    },
    {
      "inputs": [
        {
          "internalType": "address",
          "name": "_subject",
          "type": "address"
        },
        {
          "internalType": "uint256",
          "name": "_amount",
          "type": "uint256"
        },
        {
          "internalType": "uint256",
          "name": "_lockPeriodInSec",
          "type": "uint256"
        }
      ],
      "name": "depositAndLock",
      "outputs": [
        {
          "internalType": "uint256",
          "name": "unlockTimeInSec_",
          "type": "uint256"
        }
      ],
      "stateMutability": "nonpayable",
      "type": "function"
    },
    {
      "inputs": [
        {
          "internalType": "address[]",
          "name": "_subjects",
          "type": "address[]"
        },
        {
          "internalType": "uint256[]",
          "name": "_amounts",
          "type": "uint256[]"
        },
        {
          "internalType": "uint256",
          "name": "_lockPeriodsInSec",
          "type": "uint256"
        }
      ],
      "name": "depositAndLockMultiple",
      "outputs": [
        {
          "internalType": "uint256[]",
          "name": "unlockTimeInSec_",
          "type": "uint256[]"
        }
      ],
      "stateMutability": "nonpayable",
      "type": "function"
    },
    {
      "inputs": [
        {
          "internalType": "address",
          "name": "_subject",
          "type": "address"
        },
        {
          "internalType": "uint256[]",
          "name": "_indexes",
          "type": "uint256[]"
        },
        {
          "internalType": "uint256",
          "name": "_lockPeriodInSec",
          "type": "uint256"
        }
      ],
      "name": "extendLock",
      "outputs": [
        {
          "internalType": "uint256",
          "name": "totalAmount_",
          "type": "uint256"
        },
        {
          "internalType": "uint256",
          "name": "unlockTimeInSec_",
          "type": "uint256"
        }
      ],
      "stateMutability": "nonpayable",
      "type": "function"
    },
    {
      "inputs": [
        {
          "internalType": "bytes32",
          "name": "role",
          "type": "bytes32"
        }
      ],
      "name": "getRoleAdmin",
      "outputs": [
        {
          "internalType": "bytes32",
          "name": "",
          "type": "bytes32"
        }
      ],
      "stateMutability": "view",
      "type": "function"
    },
    {
      "inputs": [
        {
          "internalType": "address",
          "name": "_user",
          "type": "address"
        },
        {
          "internalType": "address",
          "name": "_subject",
          "type": "address"
        },
        {
          "internalType": "uint256[]",
          "name": "_indexes",
          "type": "uint256[]"
        }
      ],
      "name": "getTotalStakedAmount",
      "outputs": [
        {
          "internalType": "uint256",
          "name": "totalAmount_",
          "type": "uint256"
        }
      ],
      "stateMutability": "view",
      "type": "function"
    },
    {
      "inputs": [
        {
          "internalType": "bytes32",
          "name": "role",
          "type": "bytes32"
        },
        {
          "internalType": "address",
          "name": "account",
          "type": "address"
        }
      ],
      "name": "grantRole",
      "outputs": [],
      "stateMutability": "nonpayable",
      "type": "function"
    },
    {
      "inputs": [
        {
          "internalType": "bytes32",
          "name": "role",
          "type": "bytes32"
        },
        {
          "internalType": "address",
          "name": "account",
          "type": "address"
        }
      ],
      "name": "hasRole",
      "outputs": [
        {
          "internalType": "bool",
          "name": "",
          "type": "bool"
        }
      ],
      "stateMutability": "view",
      "type": "function"
    },
    {
      "inputs": [
        {
          "internalType": "address",
          "name": "_tokenManager",
          "type": "address"
        },
        {
          "internalType": "address",
          "name": "_moxieBondingCurve",
          "type": "address"
        },
        {
          "internalType": "address",
          "name": "_moxieToken",
          "type": "address"
        },
        {
          "internalType": "address",
          "name": "_defaultAdmin",
          "type": "address"
        }
      ],
      "name": "initialize",
      "outputs": [],
      "stateMutability": "nonpayable",
      "type": "function"
    },
    {
      "inputs": [],
      "name": "lockCount",
      "outputs": [
        {
          "internalType": "uint256",
          "name": "",
          "type": "uint256"
        }
      ],
      "stateMutability": "view",
      "type": "function"
    },
    {
      "inputs": [
        {
          "internalType": "uint256",
          "name": "lockPeriodInSec",
          "type": "uint256"
        }
      ],
      "name": "lockPeriodsInSec",
      "outputs": [
        {
          "internalType": "bool",
          "name": "allowed",
          "type": "bool"
        }
      ],
      "stateMutability": "view",
      "type": "function"
    },
    {
      "inputs": [
        {
          "internalType": "uint256",
          "name": "lockId",
          "type": "uint256"
        }
      ],
      "name": "locks",
      "outputs": [
        {
          "internalType": "address",
          "name": "user",
          "type": "address"
        },
        {
          "internalType": "address",
          "name": "subject",
          "type": "address"
        },
        {
          "internalType": "address",
          "name": "subjectToken",
          "type": "address"
        },
        {
          "internalType": "uint256",
          "name": "unlockTimeInSec",
          "type": "uint256"
        },
        {
          "internalType": "uint256",
          "name": "amount",
          "type": "uint256"
        },
        {
          "internalType": "uint256",
          "name": "lockPeriodInSec",
          "type": "uint256"
        }
      ],
      "stateMutability": "view",
      "type": "function"
    },
    {
      "inputs": [],
      "name": "moxieBondingCurve",
      "outputs": [
        {
          "internalType": "contract IMoxieBondingCurve",
          "name": "",
          "type": "address"
        }
      ],
      "stateMutability": "view",
      "type": "function"
    },
    {
      "inputs": [],
      "name": "moxieToken",
      "outputs": [
        {
          "internalType": "contract IERC20Extended",
          "name": "",
          "type": "address"
        }
      ],
      "stateMutability": "view",
      "type": "function"
    },
    {
      "inputs": [],
      "name": "pause",
      "outputs": [],
      "stateMutability": "nonpayable",
      "type": "function"
    },
    {
      "inputs": [],
      "name": "paused",
      "outputs": [
        {
          "internalType": "bool",
          "name": "",
          "type": "bool"
        }
      ],
      "stateMutability": "view",
      "type": "function"
    },
    {
      "inputs": [
        {
          "internalType": "bytes32",
          "name": "role",
          "type": "bytes32"
        },
        {
          "internalType": "address",
          "name": "callerConfirmation",
          "type": "address"
        }
      ],
      "name": "renounceRole",
      "outputs": [],
      "stateMutability": "nonpayable",
      "type": "function"
    },
    {
      "inputs": [
        {
          "internalType": "bytes32",
          "name": "role",
          "type": "bytes32"
        },
        {
          "internalType": "address",
          "name": "account",
          "type": "address"
        }
      ],
      "name": "revokeRole",
      "outputs": [],
      "stateMutability": "nonpayable",
      "type": "function"
    },
    {
      "inputs": [
        {
          "internalType": "uint256",
          "name": "_lockPeriodInSec",
          "type": "uint256"
        },
        {
          "internalType": "bool",
          "name": "_allowed",
          "type": "bool"
        }
      ],
      "name": "setLockPeriod",
      "outputs": [],
      "stateMutability": "nonpayable",
      "type": "function"
    },
    {
      "inputs": [
        {
          "internalType": "bytes4",
          "name": "interfaceId",
          "type": "bytes4"
        }
      ],
      "name": "supportsInterface",
      "outputs": [
        {
          "internalType": "bool",
          "name": "",
          "type": "bool"
        }
      ],
      "stateMutability": "view",
      "type": "function"
    },
    {
      "inputs": [],
      "name": "tokenManager",
      "outputs": [
        {
          "internalType": "contract ITokenManager",
          "name": "",
          "type": "address"
        }
      ],
      "stateMutability": "view",
      "type": "function"
    },
    {
      "inputs": [],
      "name": "unpause",
      "outputs": [],
      "stateMutability": "nonpayable",
      "type": "function"
    },
    {
      "inputs": [
        {
          "internalType": "address",
          "name": "_subject",
          "type": "address"
        },
        {
          "internalType": "uint256[]",
          "name": "_indexes",
          "type": "uint256[]"
        }
      ],
      "name": "withdraw",
      "outputs": [
        {
          "internalType": "uint256",
          "name": "totalAmount_",
          "type": "uint256"
        }
      ],
      "stateMutability": "nonpayable",
      "type": "function"
    }
  ],
  "bytecode": "0x608060405234801561001057600080fd5b506001600081905550613a58806100286000396000f3fe608060405234801561001057600080fd5b50600436106101a95760003560e01c806380aa59d7116100f9578063a6da1e7d11610097578063dbfc77c411610071578063dbfc77c4146104fb578063f4dadc6114610517578063f7b01a491461054c578063f8c8765e1461056a576101a9565b8063a6da1e7d1461047f578063cc98a1bc146104af578063d547741f146104df576101a9565b80638e7e260e116100d35780638e7e260e146103e257806391d14854146104135780639b10b6f514610443578063a217fddf14610461576101a9565b806380aa59d7146103785780638293744b146103a85780638456cb59146103d8576101a9565b806336568abe116101665780633f4ba83a116101405780633f4ba83a146103025780635c142f8f1461030c5780635c975abb1461033c5780636fe6e1f21461035a576101a9565b806336568abe1461029757806337cfb944146102b3578063389ed267146102e4576101a9565b806301ffc9a7146101ae578063096532d3146101de578063248a9ca3146101fc5780632a709b141461022c5780632d9220021461024a5780632f2ff15d1461027b575b600080fd5b6101c860048036038101906101c39190612aec565b610586565b6040516101d59190612b34565b60405180910390f35b6101e6610600565b6040516101f39190612b68565b60405180910390f35b61021660048036038101906102119190612baf565b610624565b6040516102239190612b68565b60405180910390f35b610234610652565b6040516102419190612c5b565b60405180910390f35b610264600480360381019061025f9190612cea565b610678565b604051610272929190612d60565b60405180910390f35b61029560048036038101906102909190612d89565b6106fd565b005b6102b160048036038101906102ac9190612d89565b61071f565b005b6102cd60048036038101906102c89190612f22565b61079a565b6040516102db929190612d60565b60405180910390f35b6102ec6108b7565b6040516102f99190612b68565b60405180910390f35b61030a6108db565b005b61032660048036038101906103219190613054565b610910565b604051610333919061319d565b60405180910390f35b610344610a28565b6040516103519190612b34565b60405180910390f35b610362610a4d565b60405161036f91906131e0565b60405180910390f35b610392600480360381019061038d9190613256565b610a73565b60405161039f91906132ca565b60405180910390f35b6103c260048036038101906103bd91906132e5565b610cf8565b6040516103cf91906132ca565b60405180910390f35b6103e0610dd4565b005b6103fc60048036038101906103f79190613341565b610e09565b60405161040a9291906133fc565b60405180910390f35b61042d60048036038101906104289190612d89565b610fac565b60405161043a9190612b34565b60405180910390f35b61044b611025565b60405161045891906132ca565b60405180910390f35b61046961102b565b6040516104769190612b68565b60405180910390f35b6104996004803603810190610494919061342c565b611032565b6040516104a691906132ca565b60405180910390f35b6104c960048036038101906104c4919061347f565b611058565b6040516104d69190612b34565b60405180910390f35b6104f960048036038101906104f49190612d89565b611078565b005b610515600480360381019061051091906134d8565b61109a565b005b610531600480360381019061052c919061347f565b611181565b60405161054396959493929190613527565b60405180910390f35b61055461121d565b60405161056191906135a9565b60405180910390f35b610584600480360381019061057f91906135c4565b611243565b005b60007f7965db0b000000000000000000000000000000000000000000000000000000007bffffffffffffffffffffffffffffffffffffffffffffffffffffffff1916827bffffffffffffffffffffffffffffffffffffffffffffffffffffffff191614806105f957506105f8826114b9565b5b9050919050565b7f7ca588b5e450d40c42764eba69cbb46460b25758bda615268602d355e47bc5f281565b60008061062f611523565b905080600001600084815260200190815260200160002060010154915050919050565b600160009054906101000a900473ffffffffffffffffffffffffffffffffffffffff1681565b600080826006600082815260200190815260200160002060009054906101000a900460ff166106d3576040517fd1514d2300000000000000000000000000000000000000000000000000000000815260040160405180910390fd5b6106db61154b565b6106e787878787611591565b925092506106f3611766565b5094509492505050565b61070682610624565b61070f81611770565b6107198383611784565b50505050565b610727611885565b73ffffffffffffffffffffffffffffffffffffffff168173ffffffffffffffffffffffffffffffffffffffff161461078b576040517f6697b23200000000000000000000000000000000000000000000000000000000815260040160405180910390fd5b610795828261188d565b505050565b600080826006600082815260200190815260200160002060009054906101000a900460ff166107f5576040517fd1514d2300000000000000000000000000000000000000000000000000000000815260040160405180910390fd5b6107fd61154b565b6000610809878761198f565b80955081925050508073ffffffffffffffffffffffffffffffffffffffff168773ffffffffffffffffffffffffffffffffffffffff163373ffffffffffffffffffffffffffffffffffffffff167f91abcbedcaad3eda62ec73be1f3b200f1beeeb47768774d2aebb0a196238e92d89886040516108879291906133fc565b60405180910390a4600061089e8886886000611ee1565b91505080935050506108ae611766565b50935093915050565b7f139c2898040ef16910dc9f44dc697df79363da767d8bc92f2e310312b816e46d81565b7f139c2898040ef16910dc9f44dc697df79363da767d8bc92f2e310312b816e46d61090581611770565b61090d6122f0565b50565b606061091a61154b565b8251845114610955576040517ff189683a00000000000000000000000000000000000000000000000000000000815260040160405180910390fd5b835167ffffffffffffffff8111156109705761096f612ddf565b5b60405190808252806020026020018201604052801561099e5781602001602082028036833780820191505090505b50905060005b8451811015610a18576109ec8582815181106109c3576109c261362b565b5b60200260200101518583815181106109de576109dd61362b565b5b602002602001015185612362565b8282815181106109ff576109fe61362b565b5b60200260200101818152505080806001019150506109a4565b50610a21611766565b9392505050565b600080610a336123af565b90508060000160009054906101000a900460ff1691505090565b600360009054906101000a900473ffffffffffffffffffffffffffffffffffffffff1681565b600080600090505b83839050811015610cef576000848483818110610a9b57610a9a61362b565b5b9050602002013590506000600560008381526020019081526020016000206040518060c00160405290816000820160009054906101000a900473ffffffffffffffffffffffffffffffffffffffff1673ffffffffffffffffffffffffffffffffffffffff1673ffffffffffffffffffffffffffffffffffffffff1681526020016001820160009054906101000a900473ffffffffffffffffffffffffffffffffffffffff1673ffffffffffffffffffffffffffffffffffffffff1673ffffffffffffffffffffffffffffffffffffffff1681526020016002820160009054906101000a900473ffffffffffffffffffffffffffffffffffffffff1673ffffffffffffffffffffffffffffffffffffffff1673ffffffffffffffffffffffffffffffffffffffff168152602001600382015481526020016004820154815260200160058201548152505090508773ffffffffffffffffffffffffffffffffffffffff16816000015173ffffffffffffffffffffffffffffffffffffffff1614610c5a57816040517ff6953e93000000000000000000000000000000000000000000000000000000008152600401610c5191906132ca565b60405180910390fd5b8673ffffffffffffffffffffffffffffffffffffffff16816020015173ffffffffffffffffffffffffffffffffffffffff1614610cce57816040517fb5e6545c000000000000000000000000000000000000000000000000000000008152600401610cc591906132ca565b60405180910390fd5b806080015184610cde9190613689565b935050508080600101915050610a7b565b50949350505050565b6000610d0261154b565b6000610d0e848461198f565b80935081925050506000819050610d4633848373ffffffffffffffffffffffffffffffffffffffff166123d79092919063ffffffff16565b8173ffffffffffffffffffffffffffffffffffffffff168573ffffffffffffffffffffffffffffffffffffffff163373ffffffffffffffffffffffffffffffffffffffff167f9a854cd73e1d94f13ab58c2976ab2e4ca74d625e791ea082e840e556ce1c7a508787604051610dbc9291906133fc565b60405180910390a45050610dce611766565b92915050565b7f139c2898040ef16910dc9f44dc697df79363da767d8bc92f2e310312b816e46d610dfe81611770565b610e06612456565b50565b60606000826006600082815260200190815260200160002060009054906101000a900460ff16610e65576040517fd1514d2300000000000000000000000000000000000000000000000000000000815260040160405180910390fd5b610e6d61154b565b85518751141580610e8057508451875114155b15610eb7576040517ff189683a00000000000000000000000000000000000000000000000000000000815260040160405180910390fd5b865167ffffffffffffffff811115610ed257610ed1612ddf565b5b604051908082528060200260200182016040528015610f005781602001602082028036833780820191505090505b50925060005b8751811015610f9957610f69888281518110610f2557610f2461362b565b5b6020026020010151888381518110610f4057610f3f61362b565b5b6020026020010151888481518110610f5b57610f5a61362b565b5b602002602001015188611591565b858381518110610f7c57610f7b61362b565b5b602002602001018195508281525050508080600101915050610f06565b50610fa2611766565b5094509492505050565b600080610fb7611523565b905080600001600085815260200190815260200160002060000160008473ffffffffffffffffffffffffffffffffffffffff1673ffffffffffffffffffffffffffffffffffffffff16815260200190815260200160002060009054906101000a900460ff1691505092915050565b60045481565b6000801b81565b600061103c61154b565b611047848484612362565b9050611051611766565b9392505050565b60066020528060005260406000206000915054906101000a900460ff1681565b61108182610624565b61108a81611770565b611094838361188d565b50505050565b7f7ca588b5e450d40c42764eba69cbb46460b25758bda615268602d355e47bc5f26110c481611770565b8115156006600085815260200190815260200160002060009054906101000a900460ff16151503611121576040517fb1b7455c00000000000000000000000000000000000000000000000000000000815260040160405180910390fd5b816006600085815260200190815260200160002060006101000a81548160ff021916908315150217905550811515837f40c5bfb9d833b107d80745dd8b8cf040c9a1019f963291743fa1bc595d43964660405160405180910390a3505050565b60056020528060005260406000206000915090508060000160009054906101000a900473ffffffffffffffffffffffffffffffffffffffff16908060010160009054906101000a900473ffffffffffffffffffffffffffffffffffffffff16908060020160009054906101000a900473ffffffffffffffffffffffffffffffffffffffff16908060030154908060040154908060050154905086565b600260009054906101000a900473ffffffffffffffffffffffffffffffffffffffff1681565b600061124d6124c8565b905060008160000160089054906101000a900460ff1615905060008260000160009054906101000a900467ffffffffffffffff1690506000808267ffffffffffffffff1614801561129b5750825b9050600060018367ffffffffffffffff161480156112d0575060003073ffffffffffffffffffffffffffffffffffffffff163b145b9050811580156112de575080155b15611315576040517ff92ee8a900000000000000000000000000000000000000000000000000000000815260040160405180910390fd5b60018560000160006101000a81548167ffffffffffffffff021916908367ffffffffffffffff16021790555083156113655760018560000160086101000a81548160ff0219169083151502179055505b61136d6124f0565b6113756124fa565b6113818989898961250c565b88600160006101000a81548173ffffffffffffffffffffffffffffffffffffffff021916908373ffffffffffffffffffffffffffffffffffffffff16021790555087600260006101000a81548173ffffffffffffffffffffffffffffffffffffffff021916908373ffffffffffffffffffffffffffffffffffffffff16021790555086600360006101000a81548173ffffffffffffffffffffffffffffffffffffffff021916908373ffffffffffffffffffffffffffffffffffffffff1602179055506114516000801b87611784565b5083156114ae5760008560000160086101000a81548160ff0219169083151502179055507fc7f505b2f371ae2175ee4913f4499e1f2633a7b5936321eed1cdaeb6115181d260016040516114a5919061370c565b60405180910390a15b505050505050505050565b60007f01ffc9a7000000000000000000000000000000000000000000000000000000007bffffffffffffffffffffffffffffffffffffffffffffffffffffffff1916827bffffffffffffffffffffffffffffffffffffffffffffffffffffffff1916149050919050565b60007f02dd7bc7dec4dceedda775e58dd541e08a116c6c53815c0bd028192f7b626800905090565b600260005403611587576040517f3ee5aeb500000000000000000000000000000000000000000000000000000000815260040160405180910390fd5b6002600081905550565b6000806115e3333087600360009054906101000a900473ffffffffffffffffffffffffffffffffffffffff1673ffffffffffffffffffffffffffffffffffffffff16612612909392919063ffffffff16565b600360009054906101000a900473ffffffffffffffffffffffffffffffffffffffff1673ffffffffffffffffffffffffffffffffffffffff1663095ea7b3600260009054906101000a900473ffffffffffffffffffffffffffffffffffffffff16876040518363ffffffff1660e01b8152600401611662929190613727565b6020604051808303816000875af1158015611681573d6000803e3d6000fd5b505050506040513d601f19601f820116820180604052508101906116a59190613765565b50600260009054906101000a900473ffffffffffffffffffffffffffffffffffffffff1673ffffffffffffffffffffffffffffffffffffffff166317f692228787876040518463ffffffff1660e01b815260040161170593929190613792565b6020604051808303816000875af1158015611724573d6000803e3d6000fd5b505050506040513d601f19601f8201168201806040525081019061174891906137de565b91506117578683856001611ee1565b90508091505094509492505050565b6001600081905550565b6117818161177c611885565b612694565b50565b60008061178f611523565b905061179b8484610fac565b61187957600181600001600086815260200190815260200160002060000160008573ffffffffffffffffffffffffffffffffffffffff1673ffffffffffffffffffffffffffffffffffffffff16815260200190815260200160002060006101000a81548160ff021916908315150217905550611815611885565b73ffffffffffffffffffffffffffffffffffffffff168373ffffffffffffffffffffffffffffffffffffffff16857f2f8788117e7eff1d82e926ec794901d17c78024a50270940304540a733656f0d60405160405180910390a4600191505061187f565b60009150505b92915050565b600033905090565b600080611898611523565b90506118a48484610fac565b1561198357600081600001600086815260200190815260200160002060000160008573ffffffffffffffffffffffffffffffffffffffff1673ffffffffffffffffffffffffffffffffffffffff16815260200190815260200160002060006101000a81548160ff02191690831515021790555061191f611885565b73ffffffffffffffffffffffffffffffffffffffff168373ffffffffffffffffffffffffffffffffffffffff16857ff6391f5c32d9c69d2a47ea670b442974b53935d1edc7fd64eb21e047a839171b60405160405180910390a46001915050611989565b60009150505b92915050565b60008061199b846126e5565b156119d2576040517f9fe3c35800000000000000000000000000000000000000000000000000000000815260040160405180910390fd5b6000835103611a0d576040517fb2140a3a00000000000000000000000000000000000000000000000000000000815260040160405180910390fd5b60006005600085600081518110611a2757611a2661362b565b5b602002602001015181526020019081526020016000206040518060c00160405290816000820160009054906101000a900473ffffffffffffffffffffffffffffffffffffffff1673ffffffffffffffffffffffffffffffffffffffff1673ffffffffffffffffffffffffffffffffffffffff1681526020016001820160009054906101000a900473ffffffffffffffffffffffffffffffffffffffff1673ffffffffffffffffffffffffffffffffffffffff1673ffffffffffffffffffffffffffffffffffffffff1681526020016002820160009054906101000a900473ffffffffffffffffffffffffffffffffffffffff1673ffffffffffffffffffffffffffffffffffffffff1673ffffffffffffffffffffffffffffffffffffffff168152602001600382015481526020016004820154815260200160058201548152505090508060400151925060005b8451811015611ed8576000858281518110611b9257611b9161362b565b5b60200260200101519050600560008281526020019081526020016000206040518060c00160405290816000820160009054906101000a900473ffffffffffffffffffffffffffffffffffffffff1673ffffffffffffffffffffffffffffffffffffffff1673ffffffffffffffffffffffffffffffffffffffff1681526020016001820160009054906101000a900473ffffffffffffffffffffffffffffffffffffffff1673ffffffffffffffffffffffffffffffffffffffff1673ffffffffffffffffffffffffffffffffffffffff1681526020016002820160009054906101000a900473ffffffffffffffffffffffffffffffffffffffff1673ffffffffffffffffffffffffffffffffffffffff1673ffffffffffffffffffffffffffffffffffffffff168152602001600382015481526020016004820154815260200160058201548152505092508673ffffffffffffffffffffffffffffffffffffffff16836020015173ffffffffffffffffffffffffffffffffffffffff1614611d5057806040517fb5e6545c000000000000000000000000000000000000000000000000000000008152600401611d4791906132ca565b60405180910390fd5b4283606001511115611da157804284606001516040517ffe6a6fa2000000000000000000000000000000000000000000000000000000008152600401611d989392919061380b565b60405180910390fd5b3373ffffffffffffffffffffffffffffffffffffffff16836000015173ffffffffffffffffffffffffffffffffffffffff1614611e1557806040517fc87a586a000000000000000000000000000000000000000000000000000000008152600401611e0c91906132ca565b60405180910390fd5b826080015184611e259190613689565b935060056000828152602001908152602001600020600080820160006101000a81549073ffffffffffffffffffffffffffffffffffffffff02191690556001820160006101000a81549073ffffffffffffffffffffffffffffffffffffffff02191690556002820160006101000a81549073ffffffffffffffffffffffffffffffffffffffff02191690556003820160009055600482016000905560058201600090555050508080600101915050611b74565b50509250929050565b600080836006600082815260200190815260200160002060009054906101000a900460ff16611f3c576040517fd1514d2300000000000000000000000000000000000000000000000000000000815260040160405180910390fd5b611f45876126e5565b15611f7c576040517f9fe3c35800000000000000000000000000000000000000000000000000000000815260040160405180910390fd5b60008603611fb6576040517f202e8e6100000000000000000000000000000000000000000000000000000000815260040160405180910390fd5b600160009054906101000a900473ffffffffffffffffffffffffffffffffffffffff1673ffffffffffffffffffffffffffffffffffffffff1663e4860339886040518263ffffffff1660e01b81526004016120119190613842565b602060405180830381865afa15801561202e573d6000803e3d6000fd5b505050506040513d601f19601f820116820180604052508101906120529190613872565b9250600073ffffffffffffffffffffffffffffffffffffffff168373ffffffffffffffffffffffffffffffffffffffff16036120ba576040517f94c08c6000000000000000000000000000000000000000000000000000000000815260040160405180910390fd5b6000600460008154809291906120cf9061389f565b91905055905085426120e19190613689565b925060006040518060c001604052803373ffffffffffffffffffffffffffffffffffffffff1681526020018a73ffffffffffffffffffffffffffffffffffffffff1681526020018673ffffffffffffffffffffffffffffffffffffffff168152602001858152602001898152602001888152509050806005600084815260200190815260200160002060008201518160000160006101000a81548173ffffffffffffffffffffffffffffffffffffffff021916908373ffffffffffffffffffffffffffffffffffffffff16021790555060208201518160010160006101000a81548173ffffffffffffffffffffffffffffffffffffffff021916908373ffffffffffffffffffffffffffffffffffffffff16021790555060408201518160020160006101000a81548173ffffffffffffffffffffffffffffffffffffffff021916908373ffffffffffffffffffffffffffffffffffffffff160217905550606082015181600301556080820151816004015560a082015181600501559050508473ffffffffffffffffffffffffffffffffffffffff168973ffffffffffffffffffffffffffffffffffffffff163373ffffffffffffffffffffffffffffffffffffffff167f1aaa1e8094e2ce0b5f18d03ea412f02d59b2c3778c459e63f7d4928befb9488b858c898d8d6040516122dc9594939291906138e7565b60405180910390a450505094509492505050565b6122f861271d565b60006123026123af565b905060008160000160006101000a81548160ff0219169083151502179055507f5db9ee0a495bf2e6ff9c91a7834c1ba4fdd244a5e8aa4e537bd38aeae4b073aa61234a611885565b6040516123579190613842565b60405180910390a150565b6000806123728585856000611ee1565b80935081925050506123a73330868473ffffffffffffffffffffffffffffffffffffffff16612612909392919063ffffffff16565b509392505050565b60007fcd5ed15c6e187e77e9aee88184c21f4f2182ab5827cb3b7e07fbedcd63f03300905090565b612451838473ffffffffffffffffffffffffffffffffffffffff1663a9059cbb858560405160240161240a929190613727565b604051602081830303815290604052915060e01b6020820180517bffffffffffffffffffffffffffffffffffffffffffffffffffffffff838183161783525050505061275d565b505050565b61245e6127f4565b60006124686123af565b905060018160000160006101000a81548160ff0219169083151502179055507f62e78cea01bee320cd4e420270b5ea74000d11b0c9f74754ebdbfc544b05a2586124b0611885565b6040516124bd9190613842565b60405180910390a150565b60007ff0c57e16840df040f15088dc2f81fe391c3923bec73e23a9662efc9c229c6a00905090565b6124f8612835565b565b612502612835565b61250a612875565b565b612515846126e5565b1561254c576040517f0f1fd26d00000000000000000000000000000000000000000000000000000000815260040160405180910390fd5b612555836126e5565b1561258c576040517f788a8b9300000000000000000000000000000000000000000000000000000000815260040160405180910390fd5b612595826126e5565b156125cc576040517fd9cc4a2e00000000000000000000000000000000000000000000000000000000815260040160405180910390fd5b6125d5816126e5565b1561260c576040517fb237eabd00000000000000000000000000000000000000000000000000000000815260040160405180910390fd5b50505050565b61268e848573ffffffffffffffffffffffffffffffffffffffff166323b872dd8686866040516024016126479392919061393a565b604051602081830303815290604052915060e01b6020820180517bffffffffffffffffffffffffffffffffffffffffffffffffffffffff838183161783525050505061275d565b50505050565b61269e8282610fac565b6126e15780826040517fe2517d3f0000000000000000000000000000000000000000000000000000000081526004016126d8929190613971565b60405180910390fd5b5050565b60008073ffffffffffffffffffffffffffffffffffffffff168273ffffffffffffffffffffffffffffffffffffffff16149050919050565b612725610a28565b61275b576040517f8dfc202b00000000000000000000000000000000000000000000000000000000815260040160405180910390fd5b565b6000612788828473ffffffffffffffffffffffffffffffffffffffff166128a990919063ffffffff16565b905060008151141580156127ad5750808060200190518101906127ab9190613765565b155b156127ef57826040517f5274afe70000000000000000000000000000000000000000000000000000000081526004016127e69190613842565b60405180910390fd5b505050565b6127fc610a28565b15612833576040517fd93c066500000000000000000000000000000000000000000000000000000000815260040160405180910390fd5b565b61283d6128bf565b612873576040517fd7e6bcf800000000000000000000000000000000000000000000000000000000815260040160405180910390fd5b565b61287d612835565b60006128876123af565b905060008160000160006101000a81548160ff02191690831515021790555050565b60606128b7838360006128df565b905092915050565b60006128c96124c8565b60000160089054906101000a900460ff16905090565b60608147101561292657306040517fcd78605900000000000000000000000000000000000000000000000000000000815260040161291d9190613842565b60405180910390fd5b6000808573ffffffffffffffffffffffffffffffffffffffff16848660405161294f9190613a0b565b60006040518083038185875af1925050503d806000811461298c576040519150601f19603f3d011682016040523d82523d6000602084013e612991565b606091505b50915091506129a18683836129ac565b925050509392505050565b6060826129c1576129bc82612a3b565b612a33565b600082511480156129e9575060008473ffffffffffffffffffffffffffffffffffffffff163b145b15612a2b57836040517f9996b315000000000000000000000000000000000000000000000000000000008152600401612a229190613842565b60405180910390fd5b819050612a34565b5b9392505050565b600081511115612a4e5780518082602001fd5b6040517f1425ea4200000000000000000000000000000000000000000000000000000000815260040160405180910390fd5b6000604051905090565b600080fd5b600080fd5b60007fffffffff0000000000000000000000000000000000000000000000000000000082169050919050565b612ac981612a94565b8114612ad457600080fd5b50565b600081359050612ae681612ac0565b92915050565b600060208284031215612b0257612b01612a8a565b5b6000612b1084828501612ad7565b91505092915050565b60008115159050919050565b612b2e81612b19565b82525050565b6000602082019050612b496000830184612b25565b92915050565b6000819050919050565b612b6281612b4f565b82525050565b6000602082019050612b7d6000830184612b59565b92915050565b612b8c81612b4f565b8114612b9757600080fd5b50565b600081359050612ba981612b83565b92915050565b600060208284031215612bc557612bc4612a8a565b5b6000612bd384828501612b9a565b91505092915050565b600073ffffffffffffffffffffffffffffffffffffffff82169050919050565b6000819050919050565b6000612c21612c1c612c1784612bdc565b612bfc565b612bdc565b9050919050565b6000612c3382612c06565b9050919050565b6000612c4582612c28565b9050919050565b612c5581612c3a565b82525050565b6000602082019050612c706000830184612c4c565b92915050565b6000612c8182612bdc565b9050919050565b612c9181612c76565b8114612c9c57600080fd5b50565b600081359050612cae81612c88565b92915050565b6000819050919050565b612cc781612cb4565b8114612cd257600080fd5b50565b600081359050612ce481612cbe565b92915050565b60008060008060808587031215612d0457612d03612a8a565b5b6000612d1287828801612c9f565b9450506020612d2387828801612cd5565b9350506040612d3487828801612cd5565b9250506060612d4587828801612cd5565b91505092959194509250565b612d5a81612cb4565b82525050565b6000604082019050612d756000830185612d51565b612d826020830184612d51565b9392505050565b60008060408385031215612da057612d9f612a8a565b5b6000612dae85828601612b9a565b9250506020612dbf85828601612c9f565b9150509250929050565b600080fd5b6000601f19601f8301169050919050565b7f4e487b7100000000000000000000000000000000000000000000000000000000600052604160045260246000fd5b612e1782612dce565b810181811067ffffffffffffffff82111715612e3657612e35612ddf565b5b80604052505050565b6000612e49612a80565b9050612e558282612e0e565b919050565b600067ffffffffffffffff821115612e7557612e74612ddf565b5b602082029050602081019050919050565b600080fd5b6000612e9e612e9984612e5a565b612e3f565b90508083825260208201905060208402830185811115612ec157612ec0612e86565b5b835b81811015612eea5780612ed68882612cd5565b845260208401935050602081019050612ec3565b5050509392505050565b600082601f830112612f0957612f08612dc9565b5b8135612f19848260208601612e8b565b91505092915050565b600080600060608486031215612f3b57612f3a612a8a565b5b6000612f4986828701612c9f565b935050602084013567ffffffffffffffff811115612f6a57612f69612a8f565b5b612f7686828701612ef4565b9250506040612f8786828701612cd5565b9150509250925092565b600067ffffffffffffffff821115612fac57612fab612ddf565b5b602082029050602081019050919050565b6000612fd0612fcb84612f91565b612e3f565b90508083825260208201905060208402830185811115612ff357612ff2612e86565b5b835b8181101561301c57806130088882612c9f565b845260208401935050602081019050612ff5565b5050509392505050565b600082601f83011261303b5761303a612dc9565b5b813561304b848260208601612fbd565b91505092915050565b60008060006060848603121561306d5761306c612a8a565b5b600084013567ffffffffffffffff81111561308b5761308a612a8f565b5b61309786828701613026565b935050602084013567ffffffffffffffff8111156130b8576130b7612a8f565b5b6130c486828701612ef4565b92505060406130d586828701612cd5565b9150509250925092565b600081519050919050565b600082825260208201905092915050565b6000819050602082019050919050565b61311481612cb4565b82525050565b6000613126838361310b565b60208301905092915050565b6000602082019050919050565b600061314a826130df565b61315481856130ea565b935061315f836130fb565b8060005b83811015613190578151613177888261311a565b975061318283613132565b925050600181019050613163565b5085935050505092915050565b600060208201905081810360008301526131b7818461313f565b905092915050565b60006131ca82612c28565b9050919050565b6131da816131bf565b82525050565b60006020820190506131f560008301846131d1565b92915050565b600080fd5b60008083601f84011261321657613215612dc9565b5b8235905067ffffffffffffffff811115613233576132326131fb565b5b60208301915083602082028301111561324f5761324e612e86565b5b9250929050565b600080600080606085870312156132705761326f612a8a565b5b600061327e87828801612c9f565b945050602061328f87828801612c9f565b935050604085013567ffffffffffffffff8111156132b0576132af612a8f565b5b6132bc87828801613200565b925092505092959194509250565b60006020820190506132df6000830184612d51565b92915050565b600080604083850312156132fc576132fb612a8a565b5b600061330a85828601612c9f565b925050602083013567ffffffffffffffff81111561332b5761332a612a8f565b5b61333785828601612ef4565b9150509250929050565b6000806000806080858703121561335b5761335a612a8a565b5b600085013567ffffffffffffffff81111561337957613378612a8f565b5b61338587828801613026565b945050602085013567ffffffffffffffff8111156133a6576133a5612a8f565b5b6133b287828801612ef4565b935050604085013567ffffffffffffffff8111156133d3576133d2612a8f565b5b6133df87828801612ef4565b92505060606133f087828801612cd5565b91505092959194509250565b60006040820190508181036000830152613416818561313f565b90506134256020830184612d51565b9392505050565b60008060006060848603121561344557613444612a8a565b5b600061345386828701612c9f565b935050602061346486828701612cd5565b925050604061347586828701612cd5565b9150509250925092565b60006020828403121561349557613494612a8a565b5b60006134a384828501612cd5565b91505092915050565b6134b581612b19565b81146134c057600080fd5b50565b6000813590506134d2816134ac565b92915050565b600080604083850312156134ef576134ee612a8a565b5b60006134fd85828601612cd5565b925050602061350e858286016134c3565b9150509250929050565b61352181612c76565b82525050565b600060c08201905061353c6000830189613518565b6135496020830188613518565b6135566040830187613518565b6135636060830186612d51565b6135706080830185612d51565b61357d60a0830184612d51565b979650505050505050565b600061359382612c28565b9050919050565b6135a381613588565b82525050565b60006020820190506135be600083018461359a565b92915050565b600080600080608085870312156135de576135dd612a8a565b5b60006135ec87828801612c9f565b94505060206135fd87828801612c9f565b935050604061360e87828801612c9f565b925050606061361f87828801612c9f565b91505092959194509250565b7f4e487b7100000000000000000000000000000000000000000000000000000000600052603260045260246000fd5b7f4e487b7100000000000000000000000000000000000000000000000000000000600052601160045260246000fd5b600061369482612cb4565b915061369f83612cb4565b92508282019050808211156136b7576136b661365a565b5b92915050565b6000819050919050565b600067ffffffffffffffff82169050919050565b60006136f66136f16136ec846136bd565b612bfc565b6136c7565b9050919050565b613706816136db565b82525050565b600060208201905061372160008301846136fd565b92915050565b600060408201905061373c6000830185613518565b6137496020830184612d51565b9392505050565b60008151905061375f816134ac565b92915050565b60006020828403121561377b5761377a612a8a565b5b600061378984828501613750565b91505092915050565b60006060820190506137a76000830186613518565b6137b46020830185612d51565b6137c16040830184612d51565b949350505050565b6000815190506137d881612cbe565b92915050565b6000602082840312156137f4576137f3612a8a565b5b6000613802848285016137c9565b91505092915050565b60006060820190506138206000830186612d51565b61382d6020830185612d51565b61383a6040830184612d51565b949350505050565b60006020820190506138576000830184613518565b92915050565b60008151905061386c81612c88565b92915050565b60006020828403121561388857613887612a8a565b5b60006138968482850161385d565b91505092915050565b60006138aa82612cb4565b91507fffffffffffffffffffffffffffffffffffffffffffffffffffffffffffffffff82036138dc576138db61365a565b5b600182019050919050565b600060a0820190506138fc6000830188612d51565b6139096020830187612d51565b6139166040830186612d51565b6139236060830185612d51565b6139306080830184612b25565b9695505050505050565b600060608201905061394f6000830186613518565b61395c6020830185613518565b6139696040830184612d51565b949350505050565b60006040820190506139866000830185613518565b6139936020830184612b59565b9392505050565b600081519050919050565b600081905092915050565b60005b838110156139ce5780820151818401526020810190506139b3565b60008484015250505050565b60006139e58261399a565b6139ef81856139a5565b93506139ff8185602086016139b0565b80840191505092915050565b6000613a1782846139da565b91508190509291505056fea264697066735822122052c5cb5a61eefc025e331ad3cf6a96fda8ecc9a043adabf3b691298cd764b3ec64736f6c63430008180033",
  "linkReferences": {},
  "deployedLinkReferences": {}
}