{
  "_format": "hh-sol-artifact-1",
  "contractName": "Staking",
  "sourceName": "contracts/Staking.sol",
  "abi": [
    {
      "inputs": [],
      "name": "AccessControlBadConfirmation",
      "type": "error"
    },
    {
      "inputs": [
        {
          "internalType": "address",
          "name": "account",
          "type": "address"
        },
        {
          "internalType": "bytes32",
          "name": "neededRole",
          "type": "bytes32"
        }
      ],
      "name": "AccessControlUnauthorizedAccount",
      "type": "error"
    },
    {
      "inputs": [
        {
          "internalType": "address",
          "name": "target",
          "type": "address"
        }
      ],
      "name": "AddressEmptyCode",
      "type": "error"
    },
    {
      "inputs": [
        {
          "internalType": "address",
          "name": "account",
          "type": "address"
        }
      ],
      "name": "AddressInsufficientBalance",
      "type": "error"
    },
    {
      "inputs": [],
      "name": "EnforcedPause",
      "type": "error"
    },
    {
      "inputs": [],
      "name": "ExpectedPause",
      "type": "error"
    },
    {
      "inputs": [],
      "name": "FailedInnerCall",
      "type": "error"
    },
    {
      "inputs": [],
      "name": "InvalidInitialization",
      "type": "error"
    },
    {
      "inputs": [],
      "name": "NotInitializing",
      "type": "error"
    },
    {
      "inputs": [],
      "name": "ReentrancyGuardReentrantCall",
      "type": "error"
    },
    {
      "inputs": [
        {
          "internalType": "address",
          "name": "token",
          "type": "address"
        }
      ],
      "name": "SafeERC20FailedOperation",
      "type": "error"
    },
    {
      "inputs": [],
      "name": "Staking_AlreadyWithdrawn",
      "type": "error"
    },
    {
      "inputs": [],
      "name": "Staking_AmountShouldBeGreaterThanZero",
      "type": "error"
    },
    {
      "inputs": [],
      "name": "Staking_EmptyIndexes",
      "type": "error"
    },
    {
      "inputs": [],
      "name": "Staking_InvalidDefaultAdmin",
      "type": "error"
    },
    {
      "inputs": [
        {
          "internalType": "uint256",
          "name": "index",
          "type": "uint256"
        }
      ],
      "name": "Staking_InvalidIndex",
      "type": "error"
    },
    {
      "inputs": [],
      "name": "Staking_InvalidInputLength",
      "type": "error"
    },
    {
      "inputs": [],
      "name": "Staking_InvalidLockPeriod",
      "type": "error"
    },
    {
      "inputs": [],
      "name": "Staking_InvalidMoxieBondingCurve",
      "type": "error"
    },
    {
      "inputs": [],
      "name": "Staking_InvalidMoxieToken",
      "type": "error"
    },
    {
      "inputs": [],
      "name": "Staking_InvalidSubject",
      "type": "error"
    },
    {
      "inputs": [],
      "name": "Staking_InvalidSubjectToken",
      "type": "error"
    },
    {
      "inputs": [],
      "name": "Staking_InvalidTokenManager",
      "type": "error"
    },
    {
      "inputs": [
        {
          "internalType": "uint256",
          "name": "index",
          "type": "uint256"
        },
        {
          "internalType": "uint256",
          "name": "currentTime",
          "type": "uint256"
        },
        {
          "internalType": "uint256",
          "name": "unlockTime",
          "type": "uint256"
        }
      ],
      "name": "Staking_LockNotExpired",
      "type": "error"
    },
    {
      "inputs": [],
      "name": "Staking_LockPeriodAlreadySet",
      "type": "error"
    },
    {
      "inputs": [
        {
          "internalType": "uint256",
          "name": "index",
          "type": "uint256"
        }
      ],
      "name": "Staking_NotOwner",
      "type": "error"
    },
    {
      "inputs": [
        {
          "internalType": "uint256",
          "name": "index",
          "type": "uint256"
        }
      ],
      "name": "Staking_NotSameUser",
      "type": "error"
    },
    {
      "inputs": [
        {
          "internalType": "uint256",
          "name": "index",
          "type": "uint256"
        }
      ],
      "name": "Staking_SubjectsDoesNotMatch",
      "type": "error"
    },
    {
      "anonymous": false,
      "inputs": [
        {
          "indexed": false,
          "internalType": "uint64",
          "name": "version",
          "type": "uint64"
        }
      ],
      "name": "Initialized",
      "type": "event"
    },
    {
      "anonymous": false,
      "inputs": [
        {
          "indexed": true,
          "internalType": "address",
          "name": "_user",
          "type": "address"
        },
        {
          "indexed": true,
          "internalType": "address",
          "name": "_subject",
          "type": "address"
        },
        {
          "indexed": true,
          "internalType": "address",
          "name": "_subjectToken",
          "type": "address"
        },
        {
          "indexed": false,
          "internalType": "uint256",
          "name": "_index",
          "type": "uint256"
        },
        {
          "indexed": false,
          "internalType": "uint256",
          "name": "_amount",
          "type": "uint256"
        },
        {
          "indexed": false,
          "internalType": "uint256",
          "name": "_unlockTimeInSec",
          "type": "uint256"
        },
        {
          "indexed": false,
          "internalType": "uint256",
          "name": "_lockPeriodInSec",
          "type": "uint256"
        }
      ],
      "name": "Lock",
      "type": "event"
    },
    {
      "anonymous": false,
      "inputs": [
        {
          "indexed": true,
          "internalType": "address",
          "name": "_user",
          "type": "address"
        },
        {
          "indexed": true,
          "internalType": "address",
          "name": "_subject",
          "type": "address"
        },
        {
          "indexed": true,
          "internalType": "address",
          "name": "_subjectToken",
          "type": "address"
        },
        {
          "indexed": false,
          "internalType": "uint256[]",
          "name": "_indexes",
          "type": "uint256[]"
        },
        {
          "indexed": false,
          "internalType": "uint256",
          "name": "_amount",
          "type": "uint256"
        }
      ],
      "name": "LockExtended",
      "type": "event"
    },
    {
      "anonymous": false,
      "inputs": [
        {
          "indexed": true,
          "internalType": "uint256",
          "name": "_lockPeriodInSec",
          "type": "uint256"
        },
        {
          "indexed": true,
          "internalType": "bool",
          "name": "_allowed",
          "type": "bool"
        }
      ],
      "name": "LockPeriodUpdated",
      "type": "event"
    },
    {
      "anonymous": false,
      "inputs": [
        {
          "indexed": false,
          "internalType": "address",
          "name": "account",
          "type": "address"
        }
      ],
      "name": "Paused",
      "type": "event"
    },
    {
      "anonymous": false,
      "inputs": [
        {
          "indexed": true,
          "internalType": "bytes32",
          "name": "role",
          "type": "bytes32"
        },
        {
          "indexed": true,
          "internalType": "bytes32",
          "name": "previousAdminRole",
          "type": "bytes32"
        },
        {
          "indexed": true,
          "internalType": "bytes32",
          "name": "newAdminRole",
          "type": "bytes32"
        }
      ],
      "name": "RoleAdminChanged",
      "type": "event"
    },
    {
      "anonymous": false,
      "inputs": [
        {
          "indexed": true,
          "internalType": "bytes32",
          "name": "role",
          "type": "bytes32"
        },
        {
          "indexed": true,
          "internalType": "address",
          "name": "account",
          "type": "address"
        },
        {
          "indexed": true,
          "internalType": "address",
          "name": "sender",
          "type": "address"
        }
      ],
      "name": "RoleGranted",
      "type": "event"
    },
    {
      "anonymous": false,
      "inputs": [
        {
          "indexed": true,
          "internalType": "bytes32",
          "name": "role",
          "type": "bytes32"
        },
        {
          "indexed": true,
          "internalType": "address",
          "name": "account",
          "type": "address"
        },
        {
          "indexed": true,
          "internalType": "address",
          "name": "sender",
          "type": "address"
        }
      ],
      "name": "RoleRevoked",
      "type": "event"
    },
    {
      "anonymous": false,
      "inputs": [
        {
          "indexed": false,
          "internalType": "address",
          "name": "account",
          "type": "address"
        }
      ],
      "name": "Unpaused",
      "type": "event"
    },
    {
      "anonymous": false,
      "inputs": [
        {
          "indexed": true,
          "internalType": "address",
          "name": "_user",
          "type": "address"
        },
        {
          "indexed": true,
          "internalType": "address",
          "name": "_subject",
          "type": "address"
        },
        {
          "indexed": true,
          "internalType": "address",
          "name": "_subjectToken",
          "type": "address"
        },
        {
          "indexed": false,
          "internalType": "uint256[]",
          "name": "_indexes",
          "type": "uint256[]"
        },
        {
          "indexed": false,
          "internalType": "uint256",
          "name": "_amount",
          "type": "uint256"
        }
      ],
      "name": "Withdraw",
      "type": "event"
    },
    {
      "inputs": [],
      "name": "CHANGE_LOCK_DURATION",
      "outputs": [
        {
          "internalType": "bytes32",
          "name": "",
          "type": "bytes32"
        }
      ],
      "stateMutability": "view",
      "type": "function"
    },
    {
      "inputs": [],
      "name": "DEFAULT_ADMIN_ROLE",
      "outputs": [
        {
          "internalType": "bytes32",
          "name": "",
          "type": "bytes32"
        }
      ],
      "stateMutability": "view",
      "type": "function"
    },
    {
      "inputs": [],
      "name": "PAUSE_ROLE",
      "outputs": [
        {
          "internalType": "bytes32",
          "name": "",
          "type": "bytes32"
        }
      ],
      "stateMutability": "view",
      "type": "function"
    },
    {
      "inputs": [
        {
          "internalType": "address",
          "name": "_subject",
          "type": "address"
        },
        {
          "internalType": "uint256",
          "name": "_depositAmount",
          "type": "uint256"
        },
        {
          "internalType": "uint256",
          "name": "_minReturnAmountAfterFee",
          "type": "uint256"
        },
        {
          "internalType": "uint256",
          "name": "_lockPeriodInSec",
          "type": "uint256"
        }
      ],
      "name": "buyAndLock",
      "outputs": [
        {
          "internalType": "uint256",
          "name": "amount_",
          "type": "uint256"
        },
        {
          "internalType": "uint256",
          "name": "unlockTimeInSec_",
          "type": "uint256"
        }
      ],
      "stateMutability": "nonpayable",
      "type": "function"
    },
    {
      "inputs": [
        {
          "internalType": "address[]",
          "name": "_subjects",
          "type": "address[]"
        },
        {
          "internalType": "uint256[]",
          "name": "_depositAmounts",
          "type": "uint256[]"
        },
        {
          "internalType": "uint256[]",
          "name": "_minReturnAmountsAfterFee",
          "type": "uint256[]"
        },
        {
          "internalType": "uint256",
          "name": "_lockPeriodsInSec",
          "type": "uint256"
        }
      ],
      "name": "buyAndLockMultiple",
      "outputs": [
        {
          "internalType": "uint256[]",
          "name": "amounts_",
          "type": "uint256[]"
        },
        {
          "internalType": "uint256",
          "name": "unlockTimeInSec_",
          "type": "uint256"
        }
      ],
      "stateMutability": "nonpayable",
      "type": "function"
    },
    {
      "inputs": [
        {
          "internalType": "address",
          "name": "_subject",
          "type": "address"
        },
        {
          "internalType": "uint256",
          "name": "_amount",
          "type": "uint256"
        },
        {
          "internalType": "uint256",
          "name": "_lockPeriodInSec",
          "type": "uint256"
        }
      ],
      "name": "depositAndLock",
      "outputs": [
        {
          "internalType": "uint256",
          "name": "unlockTimeInSec_",
          "type": "uint256"
        }
      ],
      "stateMutability": "nonpayable",
      "type": "function"
    },
    {
      "inputs": [
        {
          "internalType": "address[]",
          "name": "_subjects",
          "type": "address[]"
        },
        {
          "internalType": "uint256[]",
          "name": "_amounts",
          "type": "uint256[]"
        },
        {
          "internalType": "uint256",
          "name": "_lockPeriodsInSec",
          "type": "uint256"
        }
      ],
      "name": "depositAndLockMultiple",
      "outputs": [
        {
          "internalType": "uint256[]",
          "name": "unlockTimeInSec_",
          "type": "uint256[]"
        }
      ],
      "stateMutability": "nonpayable",
      "type": "function"
    },
    {
      "inputs": [
        {
          "internalType": "address",
          "name": "_subject",
          "type": "address"
        },
        {
          "internalType": "uint256[]",
          "name": "_indexes",
          "type": "uint256[]"
        },
        {
          "internalType": "uint256",
          "name": "_lockPeriodInSec",
          "type": "uint256"
        }
      ],
      "name": "extendLock",
      "outputs": [
        {
          "internalType": "uint256",
          "name": "totalAmount_",
          "type": "uint256"
        },
        {
          "internalType": "uint256",
          "name": "unlockTimeInSec_",
          "type": "uint256"
        }
      ],
      "stateMutability": "nonpayable",
      "type": "function"
    },
    {
      "inputs": [
        {
          "internalType": "bytes32",
          "name": "role",
          "type": "bytes32"
        }
      ],
      "name": "getRoleAdmin",
      "outputs": [
        {
          "internalType": "bytes32",
          "name": "",
          "type": "bytes32"
        }
      ],
      "stateMutability": "view",
      "type": "function"
    },
    {
      "inputs": [
        {
          "internalType": "address",
          "name": "_user",
          "type": "address"
        },
        {
          "internalType": "address",
          "name": "_subject",
          "type": "address"
        },
        {
          "internalType": "uint256[]",
          "name": "_indexes",
          "type": "uint256[]"
        }
      ],
      "name": "getTotalStakedAmount",
      "outputs": [
        {
          "internalType": "uint256",
          "name": "totalAmount_",
          "type": "uint256"
        }
      ],
      "stateMutability": "view",
      "type": "function"
    },
    {
      "inputs": [
        {
          "internalType": "bytes32",
          "name": "role",
          "type": "bytes32"
        },
        {
          "internalType": "address",
          "name": "account",
          "type": "address"
        }
      ],
      "name": "grantRole",
      "outputs": [],
      "stateMutability": "nonpayable",
      "type": "function"
    },
    {
      "inputs": [
        {
          "internalType": "bytes32",
          "name": "role",
          "type": "bytes32"
        },
        {
          "internalType": "address",
          "name": "account",
          "type": "address"
        }
      ],
      "name": "hasRole",
      "outputs": [
        {
          "internalType": "bool",
          "name": "",
          "type": "bool"
        }
      ],
      "stateMutability": "view",
      "type": "function"
    },
    {
      "inputs": [
        {
          "internalType": "address",
          "name": "_tokenManager",
          "type": "address"
        },
        {
          "internalType": "address",
          "name": "_moxieBondingCurve",
          "type": "address"
        },
        {
          "internalType": "address",
          "name": "_moxieToken",
          "type": "address"
        },
        {
          "internalType": "address",
          "name": "_defaultAdmin",
          "type": "address"
        }
      ],
      "name": "initialize",
      "outputs": [],
      "stateMutability": "nonpayable",
      "type": "function"
    },
    {
      "inputs": [],
      "name": "lockCount",
      "outputs": [
        {
          "internalType": "uint256",
          "name": "",
          "type": "uint256"
        }
      ],
      "stateMutability": "view",
      "type": "function"
    },
    {
      "inputs": [
        {
          "internalType": "uint256",
          "name": "lockPeriodInSec",
          "type": "uint256"
        }
      ],
      "name": "lockPeriodsInSec",
      "outputs": [
        {
          "internalType": "bool",
          "name": "allowed",
          "type": "bool"
        }
      ],
      "stateMutability": "view",
      "type": "function"
    },
    {
      "inputs": [
        {
          "internalType": "uint256",
          "name": "lockId",
          "type": "uint256"
        }
      ],
      "name": "locks",
      "outputs": [
        {
          "internalType": "address",
          "name": "user",
          "type": "address"
        },
        {
          "internalType": "address",
          "name": "subject",
          "type": "address"
        },
        {
          "internalType": "address",
          "name": "subjectToken",
          "type": "address"
        },
        {
          "internalType": "uint256",
          "name": "unlockTimeInSec",
          "type": "uint256"
        },
        {
          "internalType": "uint256",
          "name": "amount",
          "type": "uint256"
        },
        {
          "internalType": "uint256",
          "name": "lockPeriodInSec",
          "type": "uint256"
        }
      ],
      "stateMutability": "view",
      "type": "function"
    },
    {
      "inputs": [],
      "name": "moxieBondingCurve",
      "outputs": [
        {
          "internalType": "contract IMoxieBondingCurve",
          "name": "",
          "type": "address"
        }
      ],
      "stateMutability": "view",
      "type": "function"
    },
    {
      "inputs": [],
      "name": "moxieToken",
      "outputs": [
        {
          "internalType": "contract IERC20Extended",
          "name": "",
          "type": "address"
        }
      ],
      "stateMutability": "view",
      "type": "function"
    },
    {
      "inputs": [],
      "name": "pause",
      "outputs": [],
      "stateMutability": "nonpayable",
      "type": "function"
    },
    {
      "inputs": [],
      "name": "paused",
      "outputs": [
        {
          "internalType": "bool",
          "name": "",
          "type": "bool"
        }
      ],
      "stateMutability": "view",
      "type": "function"
    },
    {
      "inputs": [
        {
          "internalType": "bytes32",
          "name": "role",
          "type": "bytes32"
        },
        {
          "internalType": "address",
          "name": "callerConfirmation",
          "type": "address"
        }
      ],
      "name": "renounceRole",
      "outputs": [],
      "stateMutability": "nonpayable",
      "type": "function"
    },
    {
      "inputs": [
        {
          "internalType": "bytes32",
          "name": "role",
          "type": "bytes32"
        },
        {
          "internalType": "address",
          "name": "account",
          "type": "address"
        }
      ],
      "name": "revokeRole",
      "outputs": [],
      "stateMutability": "nonpayable",
      "type": "function"
    },
    {
      "inputs": [
        {
          "internalType": "uint256",
          "name": "_lockPeriodInSec",
          "type": "uint256"
        },
        {
          "internalType": "bool",
          "name": "_allowed",
          "type": "bool"
        }
      ],
      "name": "setLockPeriod",
      "outputs": [],
      "stateMutability": "nonpayable",
      "type": "function"
    },
    {
      "inputs": [
        {
          "internalType": "bytes4",
          "name": "interfaceId",
          "type": "bytes4"
        }
      ],
      "name": "supportsInterface",
      "outputs": [
        {
          "internalType": "bool",
          "name": "",
          "type": "bool"
        }
      ],
      "stateMutability": "view",
      "type": "function"
    },
    {
      "inputs": [],
      "name": "tokenManager",
      "outputs": [
        {
          "internalType": "contract ITokenManager",
          "name": "",
          "type": "address"
        }
      ],
      "stateMutability": "view",
      "type": "function"
    },
    {
      "inputs": [],
      "name": "unpause",
      "outputs": [],
      "stateMutability": "nonpayable",
      "type": "function"
    },
    {
      "inputs": [
        {
          "internalType": "address",
          "name": "_subject",
          "type": "address"
        },
        {
          "internalType": "uint256[]",
          "name": "_indexes",
          "type": "uint256[]"
        }
      ],
      "name": "withdraw",
      "outputs": [
        {
          "internalType": "uint256",
          "name": "totalAmount_",
          "type": "uint256"
        }
      ],
      "stateMutability": "nonpayable",
      "type": "function"
    }
  ],
  "bytecode": "0x608060405234801561001057600080fd5b506001600081905550613a41806100286000396000f3fe608060405234801561001057600080fd5b50600436106101a95760003560e01c806380aa59d7116100f9578063a6da1e7d11610097578063dbfc77c411610071578063dbfc77c4146104fb578063f4dadc6114610517578063f7b01a491461054c578063f8c8765e1461056a576101a9565b8063a6da1e7d1461047f578063cc98a1bc146104af578063d547741f146104df576101a9565b80638e7e260e116100d35780638e7e260e146103e257806391d14854146104135780639b10b6f514610443578063a217fddf14610461576101a9565b806380aa59d7146103785780638293744b146103a85780638456cb59146103d8576101a9565b806336568abe116101665780633f4ba83a116101405780633f4ba83a146103025780635c142f8f1461030c5780635c975abb1461033c5780636fe6e1f21461035a576101a9565b806336568abe1461029757806337cfb944146102b3578063389ed267146102e4576101a9565b806301ffc9a7146101ae578063096532d3146101de578063248a9ca3146101fc5780632a709b141461022c5780632d9220021461024a5780632f2ff15d1461027b575b600080fd5b6101c860048036038101906101c39190612ae3565b610586565b6040516101d59190612b2b565b60405180910390f35b6101e6610600565b6040516101f39190612b5f565b60405180910390f35b61021660048036038101906102119190612ba6565b610624565b6040516102239190612b5f565b60405180910390f35b610234610652565b6040516102419190612c52565b60405180910390f35b610264600480360381019061025f9190612ce1565b610678565b604051610272929190612d57565b60405180910390f35b61029560048036038101906102909190612d80565b6106fd565b005b6102b160048036038101906102ac9190612d80565b61071f565b005b6102cd60048036038101906102c89190612f19565b61079a565b6040516102db929190612d57565b60405180910390f35b6102ec6108b5565b6040516102f99190612b5f565b60405180910390f35b61030a6108d9565b005b6103266004803603810190610321919061304b565b61090e565b6040516103339190613194565b60405180910390f35b610344610a26565b6040516103519190612b2b565b60405180910390f35b610362610a4b565b60405161036f91906131d7565b60405180910390f35b610392600480360381019061038d919061324d565b610a71565b60405161039f91906132c1565b60405180910390f35b6103c260048036038101906103bd91906132dc565b610cf6565b6040516103cf91906132c1565b60405180910390f35b6103e0610dd2565b005b6103fc60048036038101906103f79190613338565b610e07565b60405161040a9291906133f3565b60405180910390f35b61042d60048036038101906104289190612d80565b610faa565b60405161043a9190612b2b565b60405180910390f35b61044b611023565b60405161045891906132c1565b60405180910390f35b610469611029565b6040516104769190612b5f565b60405180910390f35b61049960048036038101906104949190613423565b611030565b6040516104a691906132c1565b60405180910390f35b6104c960048036038101906104c49190613476565b611056565b6040516104d69190612b2b565b60405180910390f35b6104f960048036038101906104f49190612d80565b611076565b005b610515600480360381019061051091906134cf565b611098565b005b610531600480360381019061052c9190613476565b61117f565b6040516105439695949392919061351e565b60405180910390f35b61055461121b565b60405161056191906135a0565b60405180910390f35b610584600480360381019061057f91906135bb565b611241565b005b60007f7965db0b000000000000000000000000000000000000000000000000000000007bffffffffffffffffffffffffffffffffffffffffffffffffffffffff1916827bffffffffffffffffffffffffffffffffffffffffffffffffffffffff191614806105f957506105f8826114b7565b5b9050919050565b7f7ca588b5e450d40c42764eba69cbb46460b25758bda615268602d355e47bc5f281565b60008061062f611521565b905080600001600084815260200190815260200160002060010154915050919050565b600160009054906101000a900473ffffffffffffffffffffffffffffffffffffffff1681565b600080826006600082815260200190815260200160002060009054906101000a900460ff166106d3576040517fd1514d2300000000000000000000000000000000000000000000000000000000815260040160405180910390fd5b6106db611549565b6106e78787878761158f565b925092506106f3611762565b5094509492505050565b61070682610624565b61070f8161176c565b6107198383611780565b50505050565b610727611881565b73ffffffffffffffffffffffffffffffffffffffff168173ffffffffffffffffffffffffffffffffffffffff161461078b576040517f6697b23200000000000000000000000000000000000000000000000000000000815260040160405180910390fd5b6107958282611889565b505050565b600080826006600082815260200190815260200160002060009054906101000a900460ff166107f5576040517fd1514d2300000000000000000000000000000000000000000000000000000000815260040160405180910390fd5b6107fd611549565b6000610809878761198b565b80955081925050508073ffffffffffffffffffffffffffffffffffffffff168773ffffffffffffffffffffffffffffffffffffffff163373ffffffffffffffffffffffffffffffffffffffff167f91abcbedcaad3eda62ec73be1f3b200f1beeeb47768774d2aebb0a196238e92d89886040516108879291906133f3565b60405180910390a4600061089c888688611edd565b91505080935050506108ac611762565b50935093915050565b7f139c2898040ef16910dc9f44dc697df79363da767d8bc92f2e310312b816e46d81565b7f139c2898040ef16910dc9f44dc697df79363da767d8bc92f2e310312b816e46d6109038161176c565b61090b6122e9565b50565b6060610918611549565b8251845114610953576040517ff189683a00000000000000000000000000000000000000000000000000000000815260040160405180910390fd5b835167ffffffffffffffff81111561096e5761096d612dd6565b5b60405190808252806020026020018201604052801561099c5781602001602082028036833780820191505090505b50905060005b8451811015610a16576109ea8582815181106109c1576109c0613622565b5b60200260200101518583815181106109dc576109db613622565b5b60200260200101518561235b565b8282815181106109fd576109fc613622565b5b60200260200101818152505080806001019150506109a2565b50610a1f611762565b9392505050565b600080610a316123a6565b90508060000160009054906101000a900460ff1691505090565b600360009054906101000a900473ffffffffffffffffffffffffffffffffffffffff1681565b600080600090505b83839050811015610ced576000848483818110610a9957610a98613622565b5b9050602002013590506000600560008381526020019081526020016000206040518060c00160405290816000820160009054906101000a900473ffffffffffffffffffffffffffffffffffffffff1673ffffffffffffffffffffffffffffffffffffffff1673ffffffffffffffffffffffffffffffffffffffff1681526020016001820160009054906101000a900473ffffffffffffffffffffffffffffffffffffffff1673ffffffffffffffffffffffffffffffffffffffff1673ffffffffffffffffffffffffffffffffffffffff1681526020016002820160009054906101000a900473ffffffffffffffffffffffffffffffffffffffff1673ffffffffffffffffffffffffffffffffffffffff1673ffffffffffffffffffffffffffffffffffffffff168152602001600382015481526020016004820154815260200160058201548152505090508773ffffffffffffffffffffffffffffffffffffffff16816000015173ffffffffffffffffffffffffffffffffffffffff1614610c5857816040517ff6953e93000000000000000000000000000000000000000000000000000000008152600401610c4f91906132c1565b60405180910390fd5b8673ffffffffffffffffffffffffffffffffffffffff16816020015173ffffffffffffffffffffffffffffffffffffffff1614610ccc57816040517fb5e6545c000000000000000000000000000000000000000000000000000000008152600401610cc391906132c1565b60405180910390fd5b806080015184610cdc9190613680565b935050508080600101915050610a79565b50949350505050565b6000610d00611549565b6000610d0c848461198b565b80935081925050506000819050610d4433848373ffffffffffffffffffffffffffffffffffffffff166123ce9092919063ffffffff16565b8173ffffffffffffffffffffffffffffffffffffffff168573ffffffffffffffffffffffffffffffffffffffff163373ffffffffffffffffffffffffffffffffffffffff167f9a854cd73e1d94f13ab58c2976ab2e4ca74d625e791ea082e840e556ce1c7a508787604051610dba9291906133f3565b60405180910390a45050610dcc611762565b92915050565b7f139c2898040ef16910dc9f44dc697df79363da767d8bc92f2e310312b816e46d610dfc8161176c565b610e0461244d565b50565b60606000826006600082815260200190815260200160002060009054906101000a900460ff16610e63576040517fd1514d2300000000000000000000000000000000000000000000000000000000815260040160405180910390fd5b610e6b611549565b85518751141580610e7e57508451875114155b15610eb5576040517ff189683a00000000000000000000000000000000000000000000000000000000815260040160405180910390fd5b865167ffffffffffffffff811115610ed057610ecf612dd6565b5b604051908082528060200260200182016040528015610efe5781602001602082028036833780820191505090505b50925060005b8751811015610f9757610f67888281518110610f2357610f22613622565b5b6020026020010151888381518110610f3e57610f3d613622565b5b6020026020010151888481518110610f5957610f58613622565b5b60200260200101518861158f565b858381518110610f7a57610f79613622565b5b602002602001018195508281525050508080600101915050610f04565b50610fa0611762565b5094509492505050565b600080610fb5611521565b905080600001600085815260200190815260200160002060000160008473ffffffffffffffffffffffffffffffffffffffff1673ffffffffffffffffffffffffffffffffffffffff16815260200190815260200160002060009054906101000a900460ff1691505092915050565b60045481565b6000801b81565b600061103a611549565b61104584848461235b565b905061104f611762565b9392505050565b60066020528060005260406000206000915054906101000a900460ff1681565b61107f82610624565b6110888161176c565b6110928383611889565b50505050565b7f7ca588b5e450d40c42764eba69cbb46460b25758bda615268602d355e47bc5f26110c28161176c565b8115156006600085815260200190815260200160002060009054906101000a900460ff1615150361111f576040517fb1b7455c00000000000000000000000000000000000000000000000000000000815260040160405180910390fd5b816006600085815260200190815260200160002060006101000a81548160ff021916908315150217905550811515837f40c5bfb9d833b107d80745dd8b8cf040c9a1019f963291743fa1bc595d43964660405160405180910390a3505050565b60056020528060005260406000206000915090508060000160009054906101000a900473ffffffffffffffffffffffffffffffffffffffff16908060010160009054906101000a900473ffffffffffffffffffffffffffffffffffffffff16908060020160009054906101000a900473ffffffffffffffffffffffffffffffffffffffff16908060030154908060040154908060050154905086565b600260009054906101000a900473ffffffffffffffffffffffffffffffffffffffff1681565b600061124b6124bf565b905060008160000160089054906101000a900460ff1615905060008260000160009054906101000a900467ffffffffffffffff1690506000808267ffffffffffffffff161480156112995750825b9050600060018367ffffffffffffffff161480156112ce575060003073ffffffffffffffffffffffffffffffffffffffff163b145b9050811580156112dc575080155b15611313576040517ff92ee8a900000000000000000000000000000000000000000000000000000000815260040160405180910390fd5b60018560000160006101000a81548167ffffffffffffffff021916908367ffffffffffffffff16021790555083156113635760018560000160086101000a81548160ff0219169083151502179055505b61136b6124e7565b6113736124f1565b61137f89898989612503565b88600160006101000a81548173ffffffffffffffffffffffffffffffffffffffff021916908373ffffffffffffffffffffffffffffffffffffffff16021790555087600260006101000a81548173ffffffffffffffffffffffffffffffffffffffff021916908373ffffffffffffffffffffffffffffffffffffffff16021790555086600360006101000a81548173ffffffffffffffffffffffffffffffffffffffff021916908373ffffffffffffffffffffffffffffffffffffffff16021790555061144f6000801b87611780565b5083156114ac5760008560000160086101000a81548160ff0219169083151502179055507fc7f505b2f371ae2175ee4913f4499e1f2633a7b5936321eed1cdaeb6115181d260016040516114a39190613703565b60405180910390a15b505050505050505050565b60007f01ffc9a7000000000000000000000000000000000000000000000000000000007bffffffffffffffffffffffffffffffffffffffffffffffffffffffff1916827bffffffffffffffffffffffffffffffffffffffffffffffffffffffff1916149050919050565b60007f02dd7bc7dec4dceedda775e58dd541e08a116c6c53815c0bd028192f7b626800905090565b600260005403611585576040517f3ee5aeb500000000000000000000000000000000000000000000000000000000815260040160405180910390fd5b6002600081905550565b6000806115e1333087600360009054906101000a900473ffffffffffffffffffffffffffffffffffffffff1673ffffffffffffffffffffffffffffffffffffffff16612609909392919063ffffffff16565b600360009054906101000a900473ffffffffffffffffffffffffffffffffffffffff1673ffffffffffffffffffffffffffffffffffffffff1663095ea7b3600260009054906101000a900473ffffffffffffffffffffffffffffffffffffffff16876040518363ffffffff1660e01b815260040161166092919061371e565b6020604051808303816000875af115801561167f573d6000803e3d6000fd5b505050506040513d601f19601f820116820180604052508101906116a3919061375c565b50600260009054906101000a900473ffffffffffffffffffffffffffffffffffffffff1673ffffffffffffffffffffffffffffffffffffffff166317f692228787876040518463ffffffff1660e01b815260040161170393929190613789565b6020604051808303816000875af1158015611722573d6000803e3d6000fd5b505050506040513d601f19601f8201168201806040525081019061174691906137d5565b9150611753868385611edd565b90508091505094509492505050565b6001600081905550565b61177d81611778611881565b61268b565b50565b60008061178b611521565b90506117978484610faa565b61187557600181600001600086815260200190815260200160002060000160008573ffffffffffffffffffffffffffffffffffffffff1673ffffffffffffffffffffffffffffffffffffffff16815260200190815260200160002060006101000a81548160ff021916908315150217905550611811611881565b73ffffffffffffffffffffffffffffffffffffffff168373ffffffffffffffffffffffffffffffffffffffff16857f2f8788117e7eff1d82e926ec794901d17c78024a50270940304540a733656f0d60405160405180910390a4600191505061187b565b60009150505b92915050565b600033905090565b600080611894611521565b90506118a08484610faa565b1561197f57600081600001600086815260200190815260200160002060000160008573ffffffffffffffffffffffffffffffffffffffff1673ffffffffffffffffffffffffffffffffffffffff16815260200190815260200160002060006101000a81548160ff02191690831515021790555061191b611881565b73ffffffffffffffffffffffffffffffffffffffff168373ffffffffffffffffffffffffffffffffffffffff16857ff6391f5c32d9c69d2a47ea670b442974b53935d1edc7fd64eb21e047a839171b60405160405180910390a46001915050611985565b60009150505b92915050565b600080611997846126dc565b156119ce576040517f9fe3c35800000000000000000000000000000000000000000000000000000000815260040160405180910390fd5b6000835103611a09576040517fb2140a3a00000000000000000000000000000000000000000000000000000000815260040160405180910390fd5b60006005600085600081518110611a2357611a22613622565b5b602002602001015181526020019081526020016000206040518060c00160405290816000820160009054906101000a900473ffffffffffffffffffffffffffffffffffffffff1673ffffffffffffffffffffffffffffffffffffffff1673ffffffffffffffffffffffffffffffffffffffff1681526020016001820160009054906101000a900473ffffffffffffffffffffffffffffffffffffffff1673ffffffffffffffffffffffffffffffffffffffff1673ffffffffffffffffffffffffffffffffffffffff1681526020016002820160009054906101000a900473ffffffffffffffffffffffffffffffffffffffff1673ffffffffffffffffffffffffffffffffffffffff1673ffffffffffffffffffffffffffffffffffffffff168152602001600382015481526020016004820154815260200160058201548152505090508060400151925060005b8451811015611ed4576000858281518110611b8e57611b8d613622565b5b60200260200101519050600560008281526020019081526020016000206040518060c00160405290816000820160009054906101000a900473ffffffffffffffffffffffffffffffffffffffff1673ffffffffffffffffffffffffffffffffffffffff1673ffffffffffffffffffffffffffffffffffffffff1681526020016001820160009054906101000a900473ffffffffffffffffffffffffffffffffffffffff1673ffffffffffffffffffffffffffffffffffffffff1673ffffffffffffffffffffffffffffffffffffffff1681526020016002820160009054906101000a900473ffffffffffffffffffffffffffffffffffffffff1673ffffffffffffffffffffffffffffffffffffffff1673ffffffffffffffffffffffffffffffffffffffff168152602001600382015481526020016004820154815260200160058201548152505092508673ffffffffffffffffffffffffffffffffffffffff16836020015173ffffffffffffffffffffffffffffffffffffffff1614611d4c57806040517fb5e6545c000000000000000000000000000000000000000000000000000000008152600401611d4391906132c1565b60405180910390fd5b4283606001511115611d9d57804284606001516040517ffe6a6fa2000000000000000000000000000000000000000000000000000000008152600401611d9493929190613802565b60405180910390fd5b3373ffffffffffffffffffffffffffffffffffffffff16836000015173ffffffffffffffffffffffffffffffffffffffff1614611e1157806040517fc87a586a000000000000000000000000000000000000000000000000000000008152600401611e0891906132c1565b60405180910390fd5b826080015184611e219190613680565b935060056000828152602001908152602001600020600080820160006101000a81549073ffffffffffffffffffffffffffffffffffffffff02191690556001820160006101000a81549073ffffffffffffffffffffffffffffffffffffffff02191690556002820160006101000a81549073ffffffffffffffffffffffffffffffffffffffff02191690556003820160009055600482016000905560058201600090555050508080600101915050611b70565b50509250929050565b600080826006600082815260200190815260200160002060009054906101000a900460ff16611f38576040517fd1514d2300000000000000000000000000000000000000000000000000000000815260040160405180910390fd5b611f41866126dc565b15611f78576040517f9fe3c35800000000000000000000000000000000000000000000000000000000815260040160405180910390fd5b60008503611fb2576040517f202e8e6100000000000000000000000000000000000000000000000000000000815260040160405180910390fd5b600160009054906101000a900473ffffffffffffffffffffffffffffffffffffffff1673ffffffffffffffffffffffffffffffffffffffff1663e4860339876040518263ffffffff1660e01b815260040161200d9190613839565b602060405180830381865afa15801561202a573d6000803e3d6000fd5b505050506040513d601f19601f8201168201806040525081019061204e9190613869565b9250600073ffffffffffffffffffffffffffffffffffffffff168373ffffffffffffffffffffffffffffffffffffffff16036120b6576040517f94c08c6000000000000000000000000000000000000000000000000000000000815260040160405180910390fd5b6000600460008154809291906120cb90613896565b91905055905084426120dd9190613680565b925060006040518060c001604052803373ffffffffffffffffffffffffffffffffffffffff1681526020018973ffffffffffffffffffffffffffffffffffffffff1681526020018673ffffffffffffffffffffffffffffffffffffffff168152602001858152602001888152602001878152509050806005600084815260200190815260200160002060008201518160000160006101000a81548173ffffffffffffffffffffffffffffffffffffffff021916908373ffffffffffffffffffffffffffffffffffffffff16021790555060208201518160010160006101000a81548173ffffffffffffffffffffffffffffffffffffffff021916908373ffffffffffffffffffffffffffffffffffffffff16021790555060408201518160020160006101000a81548173ffffffffffffffffffffffffffffffffffffffff021916908373ffffffffffffffffffffffffffffffffffffffff160217905550606082015181600301556080820151816004015560a082015181600501559050508473ffffffffffffffffffffffffffffffffffffffff168873ffffffffffffffffffffffffffffffffffffffff163373ffffffffffffffffffffffffffffffffffffffff167f1a9b00126428c6e5266fa154b730745b028795b912a30b4684894902738d3725858b898c6040516122d694939291906138de565b60405180910390a4505050935093915050565b6122f1612714565b60006122fb6123a6565b905060008160000160006101000a81548160ff0219169083151502179055507f5db9ee0a495bf2e6ff9c91a7834c1ba4fdd244a5e8aa4e537bd38aeae4b073aa612343611881565b6040516123509190613839565b60405180910390a150565b600080612369858585611edd565b809350819250505061239e3330868473ffffffffffffffffffffffffffffffffffffffff16612609909392919063ffffffff16565b509392505050565b60007fcd5ed15c6e187e77e9aee88184c21f4f2182ab5827cb3b7e07fbedcd63f03300905090565b612448838473ffffffffffffffffffffffffffffffffffffffff1663a9059cbb858560405160240161240192919061371e565b604051602081830303815290604052915060e01b6020820180517bffffffffffffffffffffffffffffffffffffffffffffffffffffffff8381831617835250505050612754565b505050565b6124556127eb565b600061245f6123a6565b905060018160000160006101000a81548160ff0219169083151502179055507f62e78cea01bee320cd4e420270b5ea74000d11b0c9f74754ebdbfc544b05a2586124a7611881565b6040516124b49190613839565b60405180910390a150565b60007ff0c57e16840df040f15088dc2f81fe391c3923bec73e23a9662efc9c229c6a00905090565b6124ef61282c565b565b6124f961282c565b61250161286c565b565b61250c846126dc565b15612543576040517f0f1fd26d00000000000000000000000000000000000000000000000000000000815260040160405180910390fd5b61254c836126dc565b15612583576040517f788a8b9300000000000000000000000000000000000000000000000000000000815260040160405180910390fd5b61258c826126dc565b156125c3576040517fd9cc4a2e00000000000000000000000000000000000000000000000000000000815260040160405180910390fd5b6125cc816126dc565b15612603576040517fb237eabd00000000000000000000000000000000000000000000000000000000815260040160405180910390fd5b50505050565b612685848573ffffffffffffffffffffffffffffffffffffffff166323b872dd86868660405160240161263e93929190613923565b604051602081830303815290604052915060e01b6020820180517bffffffffffffffffffffffffffffffffffffffffffffffffffffffff8381831617835250505050612754565b50505050565b6126958282610faa565b6126d85780826040517fe2517d3f0000000000000000000000000000000000000000000000000000000081526004016126cf92919061395a565b60405180910390fd5b5050565b60008073ffffffffffffffffffffffffffffffffffffffff168273ffffffffffffffffffffffffffffffffffffffff16149050919050565b61271c610a26565b612752576040517f8dfc202b00000000000000000000000000000000000000000000000000000000815260040160405180910390fd5b565b600061277f828473ffffffffffffffffffffffffffffffffffffffff166128a090919063ffffffff16565b905060008151141580156127a45750808060200190518101906127a2919061375c565b155b156127e657826040517f5274afe70000000000000000000000000000000000000000000000000000000081526004016127dd9190613839565b60405180910390fd5b505050565b6127f3610a26565b1561282a576040517fd93c066500000000000000000000000000000000000000000000000000000000815260040160405180910390fd5b565b6128346128b6565b61286a576040517fd7e6bcf800000000000000000000000000000000000000000000000000000000815260040160405180910390fd5b565b61287461282c565b600061287e6123a6565b905060008160000160006101000a81548160ff02191690831515021790555050565b60606128ae838360006128d6565b905092915050565b60006128c06124bf565b60000160089054906101000a900460ff16905090565b60608147101561291d57306040517fcd7860590000000000000000000000000000000000000000000000000000000081526004016129149190613839565b60405180910390fd5b6000808573ffffffffffffffffffffffffffffffffffffffff16848660405161294691906139f4565b60006040518083038185875af1925050503d8060008114612983576040519150601f19603f3d011682016040523d82523d6000602084013e612988565b606091505b50915091506129988683836129a3565b925050509392505050565b6060826129b8576129b382612a32565b612a2a565b600082511480156129e0575060008473ffffffffffffffffffffffffffffffffffffffff163b145b15612a2257836040517f9996b315000000000000000000000000000000000000000000000000000000008152600401612a199190613839565b60405180910390fd5b819050612a2b565b5b9392505050565b600081511115612a455780518082602001fd5b6040517f1425ea4200000000000000000000000000000000000000000000000000000000815260040160405180910390fd5b6000604051905090565b600080fd5b600080fd5b60007fffffffff0000000000000000000000000000000000000000000000000000000082169050919050565b612ac081612a8b565b8114612acb57600080fd5b50565b600081359050612add81612ab7565b92915050565b600060208284031215612af957612af8612a81565b5b6000612b0784828501612ace565b91505092915050565b60008115159050919050565b612b2581612b10565b82525050565b6000602082019050612b406000830184612b1c565b92915050565b6000819050919050565b612b5981612b46565b82525050565b6000602082019050612b746000830184612b50565b92915050565b612b8381612b46565b8114612b8e57600080fd5b50565b600081359050612ba081612b7a565b92915050565b600060208284031215612bbc57612bbb612a81565b5b6000612bca84828501612b91565b91505092915050565b600073ffffffffffffffffffffffffffffffffffffffff82169050919050565b6000819050919050565b6000612c18612c13612c0e84612bd3565b612bf3565b612bd3565b9050919050565b6000612c2a82612bfd565b9050919050565b6000612c3c82612c1f565b9050919050565b612c4c81612c31565b82525050565b6000602082019050612c676000830184612c43565b92915050565b6000612c7882612bd3565b9050919050565b612c8881612c6d565b8114612c9357600080fd5b50565b600081359050612ca581612c7f565b92915050565b6000819050919050565b612cbe81612cab565b8114612cc957600080fd5b50565b600081359050612cdb81612cb5565b92915050565b60008060008060808587031215612cfb57612cfa612a81565b5b6000612d0987828801612c96565b9450506020612d1a87828801612ccc565b9350506040612d2b87828801612ccc565b9250506060612d3c87828801612ccc565b91505092959194509250565b612d5181612cab565b82525050565b6000604082019050612d6c6000830185612d48565b612d796020830184612d48565b9392505050565b60008060408385031215612d9757612d96612a81565b5b6000612da585828601612b91565b9250506020612db685828601612c96565b9150509250929050565b600080fd5b6000601f19601f8301169050919050565b7f4e487b7100000000000000000000000000000000000000000000000000000000600052604160045260246000fd5b612e0e82612dc5565b810181811067ffffffffffffffff82111715612e2d57612e2c612dd6565b5b80604052505050565b6000612e40612a77565b9050612e4c8282612e05565b919050565b600067ffffffffffffffff821115612e6c57612e6b612dd6565b5b602082029050602081019050919050565b600080fd5b6000612e95612e9084612e51565b612e36565b90508083825260208201905060208402830185811115612eb857612eb7612e7d565b5b835b81811015612ee15780612ecd8882612ccc565b845260208401935050602081019050612eba565b5050509392505050565b600082601f830112612f0057612eff612dc0565b5b8135612f10848260208601612e82565b91505092915050565b600080600060608486031215612f3257612f31612a81565b5b6000612f4086828701612c96565b935050602084013567ffffffffffffffff811115612f6157612f60612a86565b5b612f6d86828701612eeb565b9250506040612f7e86828701612ccc565b9150509250925092565b600067ffffffffffffffff821115612fa357612fa2612dd6565b5b602082029050602081019050919050565b6000612fc7612fc284612f88565b612e36565b90508083825260208201905060208402830185811115612fea57612fe9612e7d565b5b835b818110156130135780612fff8882612c96565b845260208401935050602081019050612fec565b5050509392505050565b600082601f83011261303257613031612dc0565b5b8135613042848260208601612fb4565b91505092915050565b60008060006060848603121561306457613063612a81565b5b600084013567ffffffffffffffff81111561308257613081612a86565b5b61308e8682870161301d565b935050602084013567ffffffffffffffff8111156130af576130ae612a86565b5b6130bb86828701612eeb565b92505060406130cc86828701612ccc565b9150509250925092565b600081519050919050565b600082825260208201905092915050565b6000819050602082019050919050565b61310b81612cab565b82525050565b600061311d8383613102565b60208301905092915050565b6000602082019050919050565b6000613141826130d6565b61314b81856130e1565b9350613156836130f2565b8060005b8381101561318757815161316e8882613111565b975061317983613129565b92505060018101905061315a565b5085935050505092915050565b600060208201905081810360008301526131ae8184613136565b905092915050565b60006131c182612c1f565b9050919050565b6131d1816131b6565b82525050565b60006020820190506131ec60008301846131c8565b92915050565b600080fd5b60008083601f84011261320d5761320c612dc0565b5b8235905067ffffffffffffffff81111561322a576132296131f2565b5b60208301915083602082028301111561324657613245612e7d565b5b9250929050565b6000806000806060858703121561326757613266612a81565b5b600061327587828801612c96565b945050602061328687828801612c96565b935050604085013567ffffffffffffffff8111156132a7576132a6612a86565b5b6132b3878288016131f7565b925092505092959194509250565b60006020820190506132d66000830184612d48565b92915050565b600080604083850312156132f3576132f2612a81565b5b600061330185828601612c96565b925050602083013567ffffffffffffffff81111561332257613321612a86565b5b61332e85828601612eeb565b9150509250929050565b6000806000806080858703121561335257613351612a81565b5b600085013567ffffffffffffffff8111156133705761336f612a86565b5b61337c8782880161301d565b945050602085013567ffffffffffffffff81111561339d5761339c612a86565b5b6133a987828801612eeb565b935050604085013567ffffffffffffffff8111156133ca576133c9612a86565b5b6133d687828801612eeb565b92505060606133e787828801612ccc565b91505092959194509250565b6000604082019050818103600083015261340d8185613136565b905061341c6020830184612d48565b9392505050565b60008060006060848603121561343c5761343b612a81565b5b600061344a86828701612c96565b935050602061345b86828701612ccc565b925050604061346c86828701612ccc565b9150509250925092565b60006020828403121561348c5761348b612a81565b5b600061349a84828501612ccc565b91505092915050565b6134ac81612b10565b81146134b757600080fd5b50565b6000813590506134c9816134a3565b92915050565b600080604083850312156134e6576134e5612a81565b5b60006134f485828601612ccc565b9250506020613505858286016134ba565b9150509250929050565b61351881612c6d565b82525050565b600060c082019050613533600083018961350f565b613540602083018861350f565b61354d604083018761350f565b61355a6060830186612d48565b6135676080830185612d48565b61357460a0830184612d48565b979650505050505050565b600061358a82612c1f565b9050919050565b61359a8161357f565b82525050565b60006020820190506135b56000830184613591565b92915050565b600080600080608085870312156135d5576135d4612a81565b5b60006135e387828801612c96565b94505060206135f487828801612c96565b935050604061360587828801612c96565b925050606061361687828801612c96565b91505092959194509250565b7f4e487b7100000000000000000000000000000000000000000000000000000000600052603260045260246000fd5b7f4e487b7100000000000000000000000000000000000000000000000000000000600052601160045260246000fd5b600061368b82612cab565b915061369683612cab565b92508282019050808211156136ae576136ad613651565b5b92915050565b6000819050919050565b600067ffffffffffffffff82169050919050565b60006136ed6136e86136e3846136b4565b612bf3565b6136be565b9050919050565b6136fd816136d2565b82525050565b600060208201905061371860008301846136f4565b92915050565b6000604082019050613733600083018561350f565b6137406020830184612d48565b9392505050565b600081519050613756816134a3565b92915050565b60006020828403121561377257613771612a81565b5b600061378084828501613747565b91505092915050565b600060608201905061379e600083018661350f565b6137ab6020830185612d48565b6137b86040830184612d48565b949350505050565b6000815190506137cf81612cb5565b92915050565b6000602082840312156137eb576137ea612a81565b5b60006137f9848285016137c0565b91505092915050565b60006060820190506138176000830186612d48565b6138246020830185612d48565b6138316040830184612d48565b949350505050565b600060208201905061384e600083018461350f565b92915050565b60008151905061386381612c7f565b92915050565b60006020828403121561387f5761387e612a81565b5b600061388d84828501613854565b91505092915050565b60006138a182612cab565b91507fffffffffffffffffffffffffffffffffffffffffffffffffffffffffffffffff82036138d3576138d2613651565b5b600182019050919050565b60006080820190506138f36000830187612d48565b6139006020830186612d48565b61390d6040830185612d48565b61391a6060830184612d48565b95945050505050565b6000606082019050613938600083018661350f565b613945602083018561350f565b6139526040830184612d48565b949350505050565b600060408201905061396f600083018561350f565b61397c6020830184612b50565b9392505050565b600081519050919050565b600081905092915050565b60005b838110156139b757808201518184015260208101905061399c565b60008484015250505050565b60006139ce82613983565b6139d8818561398e565b93506139e8818560208601613999565b80840191505092915050565b6000613a0082846139c3565b91508190509291505056fea2646970667358221220e3f2181e05d814fd3fd0b46a1d0fe5d525e5e0456e39ea3d411475c13635e1ce64736f6c63430008180033",
  "linkReferences": {},
  "deployedLinkReferences": {}
}