{
  "_format": "hh-sol-artifact-1",
  "contractName": "SubjectFactory",
  "sourceName": "contracts/SubjectFactory.sol",
  "abi": [
    {
      "inputs": [],
      "name": "AccessControlBadConfirmation",
      "type": "error"
    },
    {
      "inputs": [
        {
          "internalType": "address",
          "name": "account",
          "type": "address"
        },
        {
          "internalType": "bytes32",
          "name": "neededRole",
          "type": "bytes32"
        }
      ],
      "name": "AccessControlUnauthorizedAccount",
      "type": "error"
    },
    {
      "inputs": [
        {
          "internalType": "address",
          "name": "target",
          "type": "address"
        }
      ],
      "name": "AddressEmptyCode",
      "type": "error"
    },
    {
      "inputs": [
        {
          "internalType": "address",
          "name": "account",
          "type": "address"
        }
      ],
      "name": "AddressInsufficientBalance",
      "type": "error"
    },
    {
      "inputs": [],
      "name": "EnforcedPause",
      "type": "error"
    },
    {
      "inputs": [],
      "name": "ExpectedPause",
      "type": "error"
    },
    {
      "inputs": [],
      "name": "FailedInnerCall",
      "type": "error"
    },
    {
      "inputs": [],
      "name": "InvalidInitialization",
      "type": "error"
    },
    {
      "inputs": [],
      "name": "NotInitializing",
      "type": "error"
    },
    {
      "inputs": [
        {
          "internalType": "address",
          "name": "token",
          "type": "address"
        }
      ],
      "name": "SafeERC20FailedOperation",
      "type": "error"
    },
    {
      "inputs": [],
      "name": "SubjectFactory_AuctionAlreadyCreated",
      "type": "error"
    },
    {
      "inputs": [],
      "name": "SubjectFactory_AuctionNotCreated",
      "type": "error"
    },
    {
      "inputs": [],
      "name": "SubjectFactory_AuctionNotDoneYet",
      "type": "error"
    },
    {
      "inputs": [],
      "name": "SubjectFactory_BuyAmountTooLess",
      "type": "error"
    },
    {
      "inputs": [],
      "name": "SubjectFactory_InvalidAuctionContract",
      "type": "error"
    },
    {
      "inputs": [],
      "name": "SubjectFactory_InvalidAuctionDuration",
      "type": "error"
    },
    {
      "inputs": [],
      "name": "SubjectFactory_InvalidAuctionOrderCancellationDuration",
      "type": "error"
    },
    {
      "inputs": [],
      "name": "SubjectFactory_InvalidBeneficiary",
      "type": "error"
    },
    {
      "inputs": [],
      "name": "SubjectFactory_InvalidFeePercentage",
      "type": "error"
    },
    {
      "inputs": [],
      "name": "SubjectFactory_InvalidMoxieBondingCurve",
      "type": "error"
    },
    {
      "inputs": [],
      "name": "SubjectFactory_InvalidOwner",
      "type": "error"
    },
    {
      "inputs": [],
      "name": "SubjectFactory_InvalidReserveRatio",
      "type": "error"
    },
    {
      "inputs": [],
      "name": "SubjectFactory_InvalidSubject",
      "type": "error"
    },
    {
      "inputs": [],
      "name": "SubjectFactory_InvalidToken",
      "type": "error"
    },
    {
      "inputs": [],
      "name": "SubjectFactory_InvalidTokenManager",
      "type": "error"
    },
    {
      "anonymous": false,
      "inputs": [
        {
          "indexed": false,
          "internalType": "uint64",
          "name": "version",
          "type": "uint64"
        }
      ],
      "name": "Initialized",
      "type": "event"
    },
    {
      "anonymous": false,
      "inputs": [
        {
          "indexed": false,
          "internalType": "address",
          "name": "account",
          "type": "address"
        }
      ],
      "name": "Paused",
      "type": "event"
    },
    {
      "anonymous": false,
      "inputs": [
        {
          "indexed": true,
          "internalType": "bytes32",
          "name": "role",
          "type": "bytes32"
        },
        {
          "indexed": true,
          "internalType": "bytes32",
          "name": "previousAdminRole",
          "type": "bytes32"
        },
        {
          "indexed": true,
          "internalType": "bytes32",
          "name": "newAdminRole",
          "type": "bytes32"
        }
      ],
      "name": "RoleAdminChanged",
      "type": "event"
    },
    {
      "anonymous": false,
      "inputs": [
        {
          "indexed": true,
          "internalType": "bytes32",
          "name": "role",
          "type": "bytes32"
        },
        {
          "indexed": true,
          "internalType": "address",
          "name": "account",
          "type": "address"
        },
        {
          "indexed": true,
          "internalType": "address",
          "name": "sender",
          "type": "address"
        }
      ],
      "name": "RoleGranted",
      "type": "event"
    },
    {
      "anonymous": false,
      "inputs": [
        {
          "indexed": true,
          "internalType": "bytes32",
          "name": "role",
          "type": "bytes32"
        },
        {
          "indexed": true,
          "internalType": "address",
          "name": "account",
          "type": "address"
        },
        {
          "indexed": true,
          "internalType": "address",
          "name": "sender",
          "type": "address"
        }
      ],
      "name": "RoleRevoked",
      "type": "event"
    },
    {
      "anonymous": false,
      "inputs": [
        {
          "indexed": false,
          "internalType": "address",
          "name": "_subject",
          "type": "address"
        },
        {
          "indexed": false,
          "internalType": "address",
          "name": "_subjectToken",
          "type": "address"
        },
        {
          "indexed": false,
          "internalType": "uint256",
          "name": "_auctionId",
          "type": "uint256"
        },
        {
          "indexed": false,
          "internalType": "uint256",
          "name": "_bondingSupply",
          "type": "uint256"
        },
        {
          "indexed": false,
          "internalType": "uint256",
          "name": "_bondingAmount",
          "type": "uint256"
        },
        {
          "indexed": false,
          "internalType": "uint256",
          "name": "_protocolFee",
          "type": "uint256"
        },
        {
          "indexed": false,
          "internalType": "uint256",
          "name": "_subjectFee",
          "type": "uint256"
        }
      ],
      "name": "SubjectOnboardingFinished",
      "type": "event"
    },
    {
      "anonymous": false,
      "inputs": [
        {
          "indexed": false,
          "internalType": "address",
          "name": "_subject",
          "type": "address"
        },
        {
          "indexed": false,
          "internalType": "address",
          "name": "_subjectToken",
          "type": "address"
        },
        {
          "indexed": false,
          "internalType": "uint256",
          "name": "_auctionAmount",
          "type": "uint256"
        },
        {
          "indexed": false,
          "internalType": "address",
          "name": "_biddingToken",
          "type": "address"
        },
        {
          "indexed": false,
          "internalType": "uint256",
          "name": "auctionEndDate",
          "type": "uint256"
        },
        {
          "indexed": false,
          "internalType": "uint256",
          "name": "_auctionId",
          "type": "uint256"
        }
      ],
      "name": "SubjectOnboardingInitiated",
      "type": "event"
    },
    {
      "anonymous": false,
      "inputs": [
        {
          "indexed": false,
          "internalType": "address",
          "name": "account",
          "type": "address"
        }
      ],
      "name": "Unpaused",
      "type": "event"
    },
    {
      "anonymous": false,
      "inputs": [
        {
          "indexed": false,
          "internalType": "uint256",
          "name": "_auctionDuration",
          "type": "uint256"
        },
        {
          "indexed": false,
          "internalType": "uint256",
          "name": "_auctionOrderCancellationDuration",
          "type": "uint256"
        }
      ],
      "name": "UpdateAuctionParam",
      "type": "event"
    },
    {
      "anonymous": false,
      "inputs": [
        {
          "indexed": false,
          "internalType": "address",
          "name": "_beneficiary",
          "type": "address"
        }
      ],
      "name": "UpdateBeneficiary",
      "type": "event"
    },
    {
      "anonymous": false,
      "inputs": [
        {
          "indexed": false,
          "internalType": "uint256",
          "name": "_protocolFeePct",
          "type": "uint256"
        },
        {
          "indexed": false,
          "internalType": "uint256",
          "name": "_subjectFeePct",
          "type": "uint256"
        }
      ],
      "name": "UpdateFees",
      "type": "event"
    },
    {
      "inputs": [],
      "name": "AUCTION_ROLE",
      "outputs": [
        {
          "internalType": "bytes32",
          "name": "",
          "type": "bytes32"
        }
      ],
      "stateMutability": "view",
      "type": "function"
    },
    {
      "inputs": [],
      "name": "DEFAULT_ADMIN_ROLE",
      "outputs": [
        {
          "internalType": "bytes32",
          "name": "",
          "type": "bytes32"
        }
      ],
      "stateMutability": "view",
      "type": "function"
    },
    {
      "inputs": [],
      "name": "ONBOARDING_ROLE",
      "outputs": [
        {
          "internalType": "bytes32",
          "name": "",
          "type": "bytes32"
        }
      ],
      "stateMutability": "view",
      "type": "function"
    },
    {
      "inputs": [],
      "name": "PAUSE_ROLE",
      "outputs": [
        {
          "internalType": "bytes32",
          "name": "",
          "type": "bytes32"
        }
      ],
      "stateMutability": "view",
      "type": "function"
    },
    {
      "inputs": [],
      "name": "PCT_BASE",
      "outputs": [
        {
          "internalType": "uint256",
          "name": "",
          "type": "uint256"
        }
      ],
      "stateMutability": "view",
      "type": "function"
    },
    {
      "inputs": [],
      "name": "UPDATE_BENEFICIARY_ROLE",
      "outputs": [
        {
          "internalType": "bytes32",
          "name": "",
          "type": "bytes32"
        }
      ],
      "stateMutability": "view",
      "type": "function"
    },
    {
      "inputs": [],
      "name": "UPDATE_FEES_ROLE",
      "outputs": [
        {
          "internalType": "bytes32",
          "name": "",
          "type": "bytes32"
        }
      ],
      "stateMutability": "view",
      "type": "function"
    },
    {
      "inputs": [],
      "name": "auctionDuration",
      "outputs": [
        {
          "internalType": "uint256",
          "name": "",
          "type": "uint256"
        }
      ],
      "stateMutability": "view",
      "type": "function"
    },
    {
      "inputs": [],
      "name": "auctionOrderCancellationDuration",
      "outputs": [
        {
          "internalType": "uint256",
          "name": "",
          "type": "uint256"
        }
      ],
      "stateMutability": "view",
      "type": "function"
    },
    {
      "inputs": [
        {
          "internalType": "address",
          "name": "",
          "type": "address"
        }
      ],
      "name": "auctions",
      "outputs": [
        {
          "internalType": "uint256",
          "name": "auctionId",
          "type": "uint256"
        },
        {
          "internalType": "uint256",
          "name": "auctionEndDate",
          "type": "uint256"
        },
        {
          "internalType": "uint256",
          "name": "initialSupply",
          "type": "uint256"
        }
      ],
      "stateMutability": "view",
      "type": "function"
    },
    {
      "inputs": [],
      "name": "easyAuction",
      "outputs": [
        {
          "internalType": "contract IEasyAuction",
          "name": "",
          "type": "address"
        }
      ],
      "stateMutability": "view",
      "type": "function"
    },
    {
      "inputs": [],
      "name": "feeBeneficiary",
      "outputs": [
        {
          "internalType": "address",
          "name": "",
          "type": "address"
        }
      ],
      "stateMutability": "view",
      "type": "function"
    },
    {
      "inputs": [
        {
          "internalType": "address",
          "name": "_subject",
          "type": "address"
        },
        {
          "internalType": "uint256",
          "name": "_buyAmount",
          "type": "uint256"
        },
        {
          "internalType": "uint32",
          "name": "_reserveRatio",
          "type": "uint32"
        }
      ],
      "name": "finalizeSubjectOnboarding",
      "outputs": [],
      "stateMutability": "nonpayable",
      "type": "function"
    },
    {
      "inputs": [
        {
          "internalType": "bytes32",
          "name": "role",
          "type": "bytes32"
        }
      ],
      "name": "getRoleAdmin",
      "outputs": [
        {
          "internalType": "bytes32",
          "name": "",
          "type": "bytes32"
        }
      ],
      "stateMutability": "view",
      "type": "function"
    },
    {
      "inputs": [
        {
          "internalType": "bytes32",
          "name": "role",
          "type": "bytes32"
        },
        {
          "internalType": "address",
          "name": "account",
          "type": "address"
        }
      ],
      "name": "grantRole",
      "outputs": [],
      "stateMutability": "nonpayable",
      "type": "function"
    },
    {
      "inputs": [
        {
          "internalType": "bytes32",
          "name": "role",
          "type": "bytes32"
        },
        {
          "internalType": "address",
          "name": "account",
          "type": "address"
        }
      ],
      "name": "hasRole",
      "outputs": [
        {
          "internalType": "bool",
          "name": "",
          "type": "bool"
        }
      ],
      "stateMutability": "view",
      "type": "function"
    },
    {
      "inputs": [
        {
          "internalType": "address",
          "name": "_owner",
          "type": "address"
        },
        {
          "internalType": "address",
          "name": "_tokenManager",
          "type": "address"
        },
        {
          "internalType": "address",
          "name": "_moxieBondingCurve",
          "type": "address"
        },
        {
          "internalType": "address",
          "name": "_token",
          "type": "address"
        },
        {
          "internalType": "address",
          "name": "_easyAuction",
          "type": "address"
        },
        {
          "components": [
            {
              "internalType": "uint256",
              "name": "protocolFeePct",
              "type": "uint256"
            },
            {
              "internalType": "uint256",
              "name": "subjectFeePct",
              "type": "uint256"
            }
          ],
          "internalType": "struct ISubjectFactory.FeeInput",
          "name": "_feeInput",
          "type": "tuple"
        },
        {
          "internalType": "address",
          "name": "_feeBeneficiary",
          "type": "address"
        },
        {
          "internalType": "uint256",
          "name": "_auctionDuration",
          "type": "uint256"
        },
        {
          "internalType": "uint256",
          "name": "_auctionOrderCancellationDuration",
          "type": "uint256"
        }
      ],
      "name": "initialize",
      "outputs": [],
      "stateMutability": "nonpayable",
      "type": "function"
    },
    {
      "inputs": [
        {
          "internalType": "address",
          "name": "_subject",
          "type": "address"
        },
        {
          "components": [
            {
              "internalType": "string",
              "name": "name",
              "type": "string"
            },
            {
              "internalType": "string",
              "name": "symbol",
              "type": "string"
            },
            {
              "internalType": "uint96",
              "name": "initialSupply",
              "type": "uint96"
            },
            {
              "internalType": "uint96",
              "name": "minBuyAmount",
              "type": "uint96"
            },
            {
              "internalType": "uint256",
              "name": "minBiddingAmount",
              "type": "uint256"
            },
            {
              "internalType": "uint256",
              "name": "minFundingThreshold",
              "type": "uint256"
            },
            {
              "internalType": "bool",
              "name": "isAtomicClosureAllowed",
              "type": "bool"
            },
            {
              "internalType": "address",
              "name": "accessManagerContract",
              "type": "address"
            },
            {
              "internalType": "bytes",
              "name": "accessManagerContractData",
              "type": "bytes"
            }
          ],
          "internalType": "struct ISubjectFactory.SubjectAuctionInput",
          "name": "_auctionInput",
          "type": "tuple"
        }
      ],
      "name": "initiateSubjectOnboarding",
      "outputs": [
        {
          "internalType": "uint256",
          "name": "auctionId_",
          "type": "uint256"
        }
      ],
      "stateMutability": "nonpayable",
      "type": "function"
    },
    {
      "inputs": [],
      "name": "moxieBondingCurve",
      "outputs": [
        {
          "internalType": "contract IMoxieBondingCurve",
          "name": "",
          "type": "address"
        }
      ],
      "stateMutability": "view",
      "type": "function"
    },
    {
      "inputs": [],
      "name": "pause",
      "outputs": [],
      "stateMutability": "nonpayable",
      "type": "function"
    },
    {
      "inputs": [],
      "name": "paused",
      "outputs": [
        {
          "internalType": "bool",
          "name": "",
          "type": "bool"
        }
      ],
      "stateMutability": "view",
      "type": "function"
    },
    {
      "inputs": [],
      "name": "protocolFeePct",
      "outputs": [
        {
          "internalType": "uint256",
          "name": "",
          "type": "uint256"
        }
      ],
      "stateMutability": "view",
      "type": "function"
    },
    {
      "inputs": [
        {
          "internalType": "bytes32",
          "name": "role",
          "type": "bytes32"
        },
        {
          "internalType": "address",
          "name": "callerConfirmation",
          "type": "address"
        }
      ],
      "name": "renounceRole",
      "outputs": [],
      "stateMutability": "nonpayable",
      "type": "function"
    },
    {
      "inputs": [
        {
          "internalType": "bytes32",
          "name": "role",
          "type": "bytes32"
        },
        {
          "internalType": "address",
          "name": "account",
          "type": "address"
        }
      ],
      "name": "revokeRole",
      "outputs": [],
      "stateMutability": "nonpayable",
      "type": "function"
    },
    {
      "inputs": [],
      "name": "subjectFactory",
      "outputs": [
        {
          "internalType": "address",
          "name": "",
          "type": "address"
        }
      ],
      "stateMutability": "view",
      "type": "function"
    },
    {
      "inputs": [],
      "name": "subjectFeePct",
      "outputs": [
        {
          "internalType": "uint256",
          "name": "",
          "type": "uint256"
        }
      ],
      "stateMutability": "view",
      "type": "function"
    },
    {
      "inputs": [
        {
          "internalType": "bytes4",
          "name": "interfaceId",
          "type": "bytes4"
        }
      ],
      "name": "supportsInterface",
      "outputs": [
        {
          "internalType": "bool",
          "name": "",
          "type": "bool"
        }
      ],
      "stateMutability": "view",
      "type": "function"
    },
    {
      "inputs": [],
      "name": "token",
      "outputs": [
        {
          "internalType": "contract IERC20Extended",
          "name": "",
          "type": "address"
        }
      ],
      "stateMutability": "view",
      "type": "function"
    },
    {
      "inputs": [],
      "name": "tokenManager",
      "outputs": [
        {
          "internalType": "contract ITokenManager",
          "name": "",
          "type": "address"
        }
      ],
      "stateMutability": "view",
      "type": "function"
    },
    {
      "inputs": [],
      "name": "unpause",
      "outputs": [],
      "stateMutability": "nonpayable",
      "type": "function"
    },
    {
      "inputs": [
        {
          "internalType": "uint256",
          "name": "_auctionDuration",
          "type": "uint256"
        },
        {
          "internalType": "uint256",
          "name": "_auctionOrderCancellationDuration",
          "type": "uint256"
        }
      ],
      "name": "updateAuctionTime",
      "outputs": [],
      "stateMutability": "nonpayable",
      "type": "function"
    },
    {
      "inputs": [
        {
          "internalType": "address",
          "name": "_feeBeneficiary",
          "type": "address"
        }
      ],
      "name": "updateFeeBeneficiary",
      "outputs": [],
      "stateMutability": "nonpayable",
      "type": "function"
    },
    {
      "inputs": [
        {
          "components": [
            {
              "internalType": "uint256",
              "name": "protocolFeePct",
              "type": "uint256"
            },
            {
              "internalType": "uint256",
              "name": "subjectFeePct",
              "type": "uint256"
            }
          ],
          "internalType": "struct ISubjectFactory.FeeInput",
          "name": "_feeInput",
          "type": "tuple"
        }
      ],
      "name": "updateFees",
      "outputs": [],
      "stateMutability": "nonpayable",
      "type": "function"
    }
  ],
  "bytecode": "0x608060405234801561001057600080fd5b50613de1806100206000396000f3fe608060405234801561001057600080fd5b50600436106101fb5760003560e01c8063492fb3431161011a578063c74c43eb116100ad578063d8e4cdd41161007c578063d8e4cdd41461056c578063e7af32ba1461058a578063f7b01a49146105a8578063fc0c546a146105c6578063fc157cb4146105e4576101fb565b8063c74c43eb146104fa578063cdeaaf9b14610516578063d33bd29d14610534578063d547741f14610550576101fb565b80636c572893116100e95780636c572893146104865780638456cb59146104a257806391d14854146104ac578063a217fddf146104dc576101fb565b8063492fb3431461040e578063537a33811461042c5780635c975abb1461044a57806360e14b6014610468576101fb565b80633126ede1116101925780633a6226bb116101615780633a6226bb146103ac5780633f4ba83a146103c857806341644f8c146103d2578063430730a3146103f0576101fb565b80633126ede11461032457806336568abe1461034257806337ef3fbe1461035e578063389ed2671461038e576101fb565b80631d59410a116101ce5780631d59410a14610288578063248a9ca3146102ba5780632a709b14146102ea5780632f2ff15d14610308576101fb565b806301ffc9a7146102005780630cbf54c814610230578063129f8dca1461024e578063179738d01461026a575b600080fd5b61021a60048036038101906102159190612cd5565b610602565b6040516102279190612d1d565b60405180910390f35b61023861067c565b6040516102459190612d51565b60405180910390f35b61026860048036038101906102639190612d98565b610682565b005b61027261076c565b60405161027f9190612df1565b60405180910390f35b6102a2600480360381019061029d9190612e6a565b610790565b6040516102b193929190612e97565b60405180910390f35b6102d460048036038101906102cf9190612efa565b6107ba565b6040516102e19190612df1565b60405180910390f35b6102f26107e8565b6040516102ff9190612f86565b60405180910390f35b610322600480360381019061031d9190612fa1565b61080c565b005b61032c61082e565b6040516103399190612d51565b60405180910390f35b61035c60048036038101906103579190612fa1565b610834565b005b61037860048036038101906103739190613376565b6108af565b6040516103859190612d51565b60405180910390f35b610396610ba9565b6040516103a39190612df1565b60405180910390f35b6103c660048036038101906103c19190613422565b610bcd565b005b6103d06111dc565b005b6103da611211565b6040516103e79190612df1565b60405180910390f35b6103f8611235565b6040516104059190612df1565b60405180910390f35b610416611259565b60405161042391906134fc565b60405180910390f35b61043461127f565b6040516104419190613538565b60405180910390f35b6104526112a5565b60405161045f9190612d1d565b60405180910390f35b6104706112ca565b60405161047d9190612df1565b60405180910390f35b6104a0600480360381019061049b9190612e6a565b6112ee565b005b6104aa611364565b005b6104c660048036038101906104c19190612fa1565b611399565b6040516104d39190612d1d565b60405180910390f35b6104e4611412565b6040516104f19190612df1565b60405180910390f35b610514600480360381019061050f9190613553565b611419565b005b61051e6114b3565b60405161052b9190612d51565b60405180910390f35b61054e600480360381019061054991906135bc565b6114b9565b005b61056a60048036038101906105659190612fa1565b61175b565b005b61057461177d565b6040516105819190612d51565b60405180910390f35b610592611783565b60405161059f91906134fc565b60405180910390f35b6105b06117a9565b6040516105bd9190613630565b60405180910390f35b6105ce6117cf565b6040516105db919061366c565b60405180910390f35b6105ec6117f5565b6040516105f99190612d51565b60405180910390f35b60007f7965db0b000000000000000000000000000000000000000000000000000000007bffffffffffffffffffffffffffffffffffffffffffffffffffffffff1916827bffffffffffffffffffffffffffffffffffffffffffffffffffffffff19161480610675575061067482611801565b5b9050919050565b60075481565b7fc5e2d1653feba496cf5ce3a744b90ea18acf0df3d036aba9b2f85992a14679066106ac8161186b565b600083036106e6576040517f936914f800000000000000000000000000000000000000000000000000000000815260040160405180910390fd5b60008203610720576040517fa1486c1500000000000000000000000000000000000000000000000000000000815260040160405180910390fd5b82600781905550816008819055507f6a40a5dc1fd517e0fe16eca9e81dd0e0d2b9b1f06f7799095c470000c8c488d0838360405161075f929190613687565b60405180910390a1505050565b7f41ab08329fb0a2935fa2b8b127e3380ff152b38c9f016ae14226bf4decc8746681565b600a6020528060005260406000206000915090508060000154908060010154908060020154905083565b6000806107c561187f565b905080600001600084815260200190815260200160002060010154915050919050565b60008054906101000a900473ffffffffffffffffffffffffffffffffffffffff1681565b610815826107ba565b61081e8161186b565b61082883836118a7565b50505050565b60085481565b61083c6119a8565b73ffffffffffffffffffffffffffffffffffffffff168173ffffffffffffffffffffffffffffffffffffffff16146108a0576040517f6697b23200000000000000000000000000000000000000000000000000000000815260040160405180910390fd5b6108aa82826119b0565b505050565b60006108b9611ab2565b7f41ab08329fb0a2935fa2b8b127e3380ff152b38c9f016ae14226bf4decc874666108e38161186b565b600073ffffffffffffffffffffffffffffffffffffffff168473ffffffffffffffffffffffffffffffffffffffff1603610949576040517f2d44adc700000000000000000000000000000000000000000000000000000000815260040160405180910390fd5b6000600a60008673ffffffffffffffffffffffffffffffffffffffff1673ffffffffffffffffffffffffffffffffffffffff16815260200190815260200160002060000154146109c5576040517fb347d57900000000000000000000000000000000000000000000000000000000815260040160405180910390fd5b60008060009054906101000a900473ffffffffffffffffffffffffffffffffffffffff1673ffffffffffffffffffffffffffffffffffffffff166316bc0cf0868660000151876020015188604001518960e001516040518663ffffffff1660e01b8152600401610a39959493929190613760565b6020604051808303816000875af1158015610a58573d6000803e3d6000fd5b505050506040513d601f19601f82011682018060405250810190610a7c91906137d6565b90508073ffffffffffffffffffffffffffffffffffffffff1663095ea7b3600660009054906101000a900473ffffffffffffffffffffffffffffffffffffffff1686604001516040518363ffffffff1660e01b8152600401610adf929190613803565b6020604051808303816000875af1158015610afe573d6000803e3d6000fd5b505050506040513d601f19601f82011682018060405250810190610b229190613841565b50600080610b31878488611af3565b915091508194507f6fe3c8bc2a001eda7bcb9594360771389b00cd33722aa178cc817bd906120eaf87848860400151600960009054906101000a900473ffffffffffffffffffffffffffffffffffffffff16858a604051610b979695949392919061386e565b60405180910390a15050505092915050565b7f139c2898040ef16910dc9f44dc697df79363da767d8bc92f2e310312b816e46d81565b6000610bd7611cf5565b905060008160000160089054906101000a900460ff1615905060008260000160009054906101000a900467ffffffffffffffff1690506000808267ffffffffffffffff16148015610c255750825b9050600060018367ffffffffffffffff16148015610c5a575060003073ffffffffffffffffffffffffffffffffffffffff163b145b905081158015610c68575080155b15610c9f576040517ff92ee8a900000000000000000000000000000000000000000000000000000000815260040160405180910390fd5b60018560000160006101000a81548167ffffffffffffffff021916908367ffffffffffffffff1602179055508315610cef5760018560000160086101000a81548160ff0219169083151502179055505b600073ffffffffffffffffffffffffffffffffffffffff168e73ffffffffffffffffffffffffffffffffffffffff1603610d55576040517f3ea5e1ca00000000000000000000000000000000000000000000000000000000815260040160405180910390fd5b600073ffffffffffffffffffffffffffffffffffffffff168d73ffffffffffffffffffffffffffffffffffffffff1603610dbb576040517fdf26fddd00000000000000000000000000000000000000000000000000000000815260040160405180910390fd5b600073ffffffffffffffffffffffffffffffffffffffff168c73ffffffffffffffffffffffffffffffffffffffff1603610e21576040517ffa06deda00000000000000000000000000000000000000000000000000000000815260040160405180910390fd5b600073ffffffffffffffffffffffffffffffffffffffff168b73ffffffffffffffffffffffffffffffffffffffff1603610e87576040517f1aa291de00000000000000000000000000000000000000000000000000000000815260040160405180910390fd5b600073ffffffffffffffffffffffffffffffffffffffff168a73ffffffffffffffffffffffffffffffffffffffff1603610eed576040517fe2562cd800000000000000000000000000000000000000000000000000000000815260040160405180910390fd5b610efa8960000151611d1d565b1580610f105750610f0e8960200151611d1d565b155b15610f47576040517f540685df00000000000000000000000000000000000000000000000000000000815260040160405180910390fd5b610f5088611d31565b610f86576040517f7539c7ce00000000000000000000000000000000000000000000000000000000815260040160405180910390fd5b60008703610fc0576040517f936914f800000000000000000000000000000000000000000000000000000000815260040160405180910390fd5b60008603610ffa576040517fa1486c1500000000000000000000000000000000000000000000000000000000815260040160405180910390fd5b8860000151600281905550886020015160038190555087600460006101000a81548173ffffffffffffffffffffffffffffffffffffffff021916908373ffffffffffffffffffffffffffffffffffffffff1602179055508a600960006101000a81548173ffffffffffffffffffffffffffffffffffffffff021916908373ffffffffffffffffffffffffffffffffffffffff160217905550866007819055508560088190555089600660006101000a81548173ffffffffffffffffffffffffffffffffffffffff021916908373ffffffffffffffffffffffffffffffffffffffff1602179055508c6000806101000a81548173ffffffffffffffffffffffffffffffffffffffff021916908373ffffffffffffffffffffffffffffffffffffffff1602179055508b600160006101000a81548173ffffffffffffffffffffffffffffffffffffffff021916908373ffffffffffffffffffffffffffffffffffffffff16021790555061116f6000801b8f6118a7565b5083156111cc5760008560000160086101000a81548160ff0219169083151502179055507fc7f505b2f371ae2175ee4913f4499e1f2633a7b5936321eed1cdaeb6115181d260016040516111c3919061391e565b60405180910390a15b5050505050505050505050505050565b7f139c2898040ef16910dc9f44dc697df79363da767d8bc92f2e310312b816e46d6112068161186b565b61120e611d6a565b50565b7ff7ea2b80c7b6a2cab2c11d2290cb005c3748397358a25e17113658c83b73259381565b7fc5e2d1653feba496cf5ce3a744b90ea18acf0df3d036aba9b2f85992a146790681565b600460009054906101000a900473ffffffffffffffffffffffffffffffffffffffff1681565b600660009054906101000a900473ffffffffffffffffffffffffffffffffffffffff1681565b6000806112b0611ddc565b90508060000160009054906101000a900460ff1691505090565b7f5f9be2932ed3a723f295a763be1804c7ebfd1a41c1348fb8bdf5be1c5cdca82281565b7ff7ea2b80c7b6a2cab2c11d2290cb005c3748397358a25e17113658c83b7325936113188161186b565b61132182611d31565b611357576040517f7539c7ce00000000000000000000000000000000000000000000000000000000815260040160405180910390fd5b61136082611e04565b5050565b7f139c2898040ef16910dc9f44dc697df79363da767d8bc92f2e310312b816e46d61138e8161186b565b611396611e7f565b50565b6000806113a461187f565b905080600001600085815260200190815260200160002060000160008473ffffffffffffffffffffffffffffffffffffffff1673ffffffffffffffffffffffffffffffffffffffff16815260200190815260200160002060009054906101000a900460ff1691505092915050565b6000801b81565b7f5f9be2932ed3a723f295a763be1804c7ebfd1a41c1348fb8bdf5be1c5cdca8226114438161186b565b6114508260000151611d1d565b158061146657506114648260200151611d1d565b155b1561149d576040517f540685df00000000000000000000000000000000000000000000000000000000815260040160405180910390fd5b6114af82600001518360200151611ef1565b5050565b60025481565b6114c1611ab2565b7f41ab08329fb0a2935fa2b8b127e3380ff152b38c9f016ae14226bf4decc874666114eb8161186b565b600073ffffffffffffffffffffffffffffffffffffffff168473ffffffffffffffffffffffffffffffffffffffff1603611551576040517f2d44adc700000000000000000000000000000000000000000000000000000000815260040160405180910390fd5b60008263ffffffff1603611591576040517ffa427b3200000000000000000000000000000000000000000000000000000000815260040160405180910390fd5b6000600a60008673ffffffffffffffffffffffffffffffffffffffff1673ffffffffffffffffffffffffffffffffffffffff1681526020019081526020016000206040518060600160405290816000820154815260200160018201548152602001600282015481525050905060008160000151905060008103611640576040517fc1b57a9100000000000000000000000000000000000000000000000000000000815260040160405180910390fd5b816020015142101561167e576040517f6a1941ba00000000000000000000000000000000000000000000000000000000815260040160405180910390fd5b6116cd333087600960009054906101000a900473ffffffffffffffffffffffffffffffffffffffff1673ffffffffffffffffffffffffffffffffffffffff16611f40909392919063ffffffff16565b600a60008773ffffffffffffffffffffffffffffffffffffffff1673ffffffffffffffffffffffffffffffffffffffff168152602001908152602001600020600080820160009055600182016000905560028201600090555050600080600061173b848a8760400151611fc2565b925092509250611750848a84868b868e6123fd565b505050505050505050565b611764826107ba565b61176d8161186b565b61177783836119b0565b50505050565b60035481565b600560009054906101000a900473ffffffffffffffffffffffffffffffffffffffff1681565b600160009054906101000a900473ffffffffffffffffffffffffffffffffffffffff1681565b600960009054906101000a900473ffffffffffffffffffffffffffffffffffffffff1681565b670de0b6b3a764000081565b60007f01ffc9a7000000000000000000000000000000000000000000000000000000007bffffffffffffffffffffffffffffffffffffffffffffffffffffffff1916827bffffffffffffffffffffffffffffffffffffffffffffffffffffffff1916149050919050565b61187c816118776119a8565b612847565b50565b60007f02dd7bc7dec4dceedda775e58dd541e08a116c6c53815c0bd028192f7b626800905090565b6000806118b261187f565b90506118be8484611399565b61199c57600181600001600086815260200190815260200160002060000160008573ffffffffffffffffffffffffffffffffffffffff1673ffffffffffffffffffffffffffffffffffffffff16815260200190815260200160002060006101000a81548160ff0219169083151502179055506119386119a8565b73ffffffffffffffffffffffffffffffffffffffff168373ffffffffffffffffffffffffffffffffffffffff16857f2f8788117e7eff1d82e926ec794901d17c78024a50270940304540a733656f0d60405160405180910390a460019150506119a2565b60009150505b92915050565b600033905090565b6000806119bb61187f565b90506119c78484611399565b15611aa657600081600001600086815260200190815260200160002060000160008573ffffffffffffffffffffffffffffffffffffffff1673ffffffffffffffffffffffffffffffffffffffff16815260200190815260200160002060006101000a81548160ff021916908315150217905550611a426119a8565b73ffffffffffffffffffffffffffffffffffffffff168373ffffffffffffffffffffffffffffffffffffffff16857ff6391f5c32d9c69d2a47ea670b442974b53935d1edc7fd64eb21e047a839171b60405160405180910390a46001915050611aac565b60009150505b92915050565b611aba6112a5565b15611af1576040517fd93c066500000000000000000000000000000000000000000000000000000000815260040160405180910390fd5b565b60008060075442611b049190613968565b9050600660009054906101000a900473ffffffffffffffffffffffffffffffffffffffff1673ffffffffffffffffffffffffffffffffffffffff16630a4cd6c985600960009054906101000a900473ffffffffffffffffffffffffffffffffffffffff1660085442611b769190613968565b85886040015189606001518a608001518b60a001518c60c001518d60e001518e61010001516040518c63ffffffff1660e01b8152600401611bc19b9a99989796959493929190613a00565b6020604051808303816000875af1158015611be0573d6000803e3d6000fd5b505050506040513d601f19601f82011682018060405250810190611c049190613ac7565b915081600a60008773ffffffffffffffffffffffffffffffffffffffff1673ffffffffffffffffffffffffffffffffffffffff1681526020019081526020016000206000018190555080600a60008773ffffffffffffffffffffffffffffffffffffffff1673ffffffffffffffffffffffffffffffffffffffff1681526020019081526020016000206001018190555082604001516bffffffffffffffffffffffff16600a60008773ffffffffffffffffffffffffffffffffffffffff1673ffffffffffffffffffffffffffffffffffffffff16815260200190815260200160002060020181905550935093915050565b60007ff0c57e16840df040f15088dc2f81fe391c3923bec73e23a9662efc9c229c6a00905090565b6000670de0b6b3a764000082109050919050565b60008073ffffffffffffffffffffffffffffffffffffffff168273ffffffffffffffffffffffffffffffffffffffff1614159050919050565b611d72612898565b6000611d7c611ddc565b905060008160000160006101000a81548160ff0219169083151502179055507f5db9ee0a495bf2e6ff9c91a7834c1ba4fdd244a5e8aa4e537bd38aeae4b073aa611dc46119a8565b604051611dd191906134fc565b60405180910390a150565b60007fcd5ed15c6e187e77e9aee88184c21f4f2182ab5827cb3b7e07fbedcd63f03300905090565b80600460006101000a81548173ffffffffffffffffffffffffffffffffffffffff021916908373ffffffffffffffffffffffffffffffffffffffff1602179055507fe6131a64e93e9aa4ff38892c34d563c06dcc1e03b3d6897cc65f0903e2ad684881604051611e7491906134fc565b60405180910390a150565b611e87611ab2565b6000611e91611ddc565b905060018160000160006101000a81548160ff0219169083151502179055507f62e78cea01bee320cd4e420270b5ea74000d11b0c9f74754ebdbfc544b05a258611ed96119a8565b604051611ee691906134fc565b60405180910390a150565b81600281905550806003819055507f53482196ef67ac615caab1c3eca2c270acbfdcd75e57c5f24c1b98b10c8e6e04600254600354604051611f34929190613687565b60405180910390a15050565b611fbc848573ffffffffffffffffffffffffffffffffffffffff166323b872dd868686604051602401611f7593929190613af4565b604051602081830303815290604052915060e01b6020820180517bffffffffffffffffffffffffffffffffffffffffffffffffffffffff83818316178352505050506128d8565b50505050565b60008060008060008054906101000a900473ffffffffffffffffffffffffffffffffffffffff1673ffffffffffffffffffffffffffffffffffffffff1663e4860339876040518263ffffffff1660e01b815260040161202191906134fc565b6020604051808303816000875af1158015612040573d6000803e3d6000fd5b505050506040513d601f19601f8201168201806040525081019061206491906137d6565b905060008173ffffffffffffffffffffffffffffffffffffffff166370a08231306040518263ffffffff1660e01b81526004016120a191906134fc565b602060405180830381865afa1580156120be573d6000803e3d6000fd5b505050506040513d601f19601f820116820180604052508101906120e29190613ac7565b90506000600960009054906101000a900473ffffffffffffffffffffffffffffffffffffffff1673ffffffffffffffffffffffffffffffffffffffff166370a08231306040518263ffffffff1660e01b815260040161214191906134fc565b602060405180830381865afa15801561215e573d6000803e3d6000fd5b505050506040513d601f19601f820116820180604052508101906121829190613ac7565b9050600660009054906101000a900473ffffffffffffffffffffffffffffffffffffffff1673ffffffffffffffffffffffffffffffffffffffff16632e9936118a6040518263ffffffff1660e01b81526004016121df9190612d51565b6020604051808303816000875af11580156121fe573d6000803e3d6000fd5b505050506040513d601f19601f820116820180604052508101906122229190613b40565b935060008373ffffffffffffffffffffffffffffffffffffffff166370a08231306040518263ffffffff1660e01b815260040161225f91906134fc565b602060405180830381865afa15801561227c573d6000803e3d6000fd5b505050506040513d601f19601f820116820180604052508101906122a09190613ac7565b90506000600960009054906101000a900473ffffffffffffffffffffffffffffffffffffffff1673ffffffffffffffffffffffffffffffffffffffff166370a08231306040518263ffffffff1660e01b81526004016122ff91906134fc565b602060405180830381865afa15801561231c573d6000803e3d6000fd5b505050506040513d601f19601f820116820180604052508101906123409190613ac7565b9050838261234e9190613b6d565b896123599190613b6d565b975082816123679190613b6d565b96506000888a6123779190613b6d565b905060008111156123ee578573ffffffffffffffffffffffffffffffffffffffff166342966c68826040518263ffffffff1660e01b81526004016123bb9190612d51565b600060405180830381600087803b1580156123d557600080fd5b505af11580156123e9573d6000803e3d6000fd5b505050505b50505050505093509350939050565b6000612409838361296f565b905060008103612445576040517fe2d3672300000000000000000000000000000000000000000000000000000000815260040160405180910390fd5b60008054906101000a900473ffffffffffffffffffffffffffffffffffffffff1673ffffffffffffffffffffffffffffffffffffffff1663c6c3bbe68830846040518463ffffffff1660e01b81526004016124a293929190613af4565b6020604051808303816000875af11580156124c1573d6000803e3d6000fd5b505050506040513d601f19601f820116820180604052508101906124e59190613841565b506000806124fd84896124f89190613968565b6129bf565b9150915060008183868b6125119190613968565b61251b9190613b6d565b6125259190613b6d565b9050600960009054906101000a900473ffffffffffffffffffffffffffffffffffffffff1673ffffffffffffffffffffffffffffffffffffffff1663095ea7b3600160009054906101000a900473ffffffffffffffffffffffffffffffffffffffff16836040518363ffffffff1660e01b81526004016125a6929190613ba1565b6020604051808303816000875af11580156125c5573d6000803e3d6000fd5b505050506040513d601f19601f820116820180604052508101906125e99190613841565b50600084896125f89190613968565b9050600160009054906101000a900473ffffffffffffffffffffffffffffffffffffffff1673ffffffffffffffffffffffffffffffffffffffff1663ba6da0018c8a84866040518563ffffffff1660e01b815260040161265b9493929190613bd9565b6020604051808303816000875af115801561267a573d6000803e3d6000fd5b505050506040513d601f19601f8201168201806040525081019061269e9190613841565b5061270e600460009054906101000a900473ffffffffffffffffffffffffffffffffffffffff1685600960009054906101000a900473ffffffffffffffffffffffffffffffffffffffff1673ffffffffffffffffffffffffffffffffffffffff16612a0d9092919063ffffffff16565b61275b8b84600960009054906101000a900473ffffffffffffffffffffffffffffffffffffffff1673ffffffffffffffffffffffffffffffffffffffff16612a0d9092919063ffffffff16565b7f8a5439e754019b388689fac2719ea5351c2d8a330326fffaa5ae8e20df3df0368b60008054906101000a900473ffffffffffffffffffffffffffffffffffffffff1673ffffffffffffffffffffffffffffffffffffffff1663e48603398e6040518263ffffffff1660e01b81526004016127d691906134fc565b6020604051808303816000875af11580156127f5573d6000803e3d6000fd5b505050506040513d601f19601f8201168201806040525081019061281991906137d6565b8e848689896040516128319796959493929190613c1e565b60405180910390a1505050505050505050505050565b6128518282611399565b6128945780826040517fe2517d3f00000000000000000000000000000000000000000000000000000000815260040161288b929190613c8d565b60405180910390fd5b5050565b6128a06112a5565b6128d6576040517f8dfc202b00000000000000000000000000000000000000000000000000000000815260040160405180910390fd5b565b6000612903828473ffffffffffffffffffffffffffffffffffffffff16612a8c90919063ffffffff16565b905060008151141580156129285750808060200190518101906129269190613841565b155b1561296a57826040517f5274afe700000000000000000000000000000000000000000000000000000000815260040161296191906134fc565b60405180910390fd5b505050565b600080600061297d85612aa2565b9250925050806bffffffffffffffffffffffff1684836bffffffffffffffffffffffff166129ab9190613cb6565b6129b59190613d27565b9250505092915050565b600080670de0b6b3a7640000600254846129d99190613cb6565b6129e39190613d27565b9150670de0b6b3a7640000600354846129fc9190613cb6565b612a069190613d27565b9050915091565b612a87838473ffffffffffffffffffffffffffffffffffffffff1663a9059cbb8585604051602401612a40929190613ba1565b604051602081830303815290604052915060e01b6020820180517bffffffffffffffffffffffffffffffffffffffffffffffffffffffff83818316178352505050506128d8565b505050565b6060612a9a83836000612ac8565b905092915050565b600080600060c08460001c901c925060608460001c901c91508360001c90509193909250565b606081471015612b0f57306040517fcd786059000000000000000000000000000000000000000000000000000000008152600401612b0691906134fc565b60405180910390fd5b6000808573ffffffffffffffffffffffffffffffffffffffff168486604051612b389190613d94565b60006040518083038185875af1925050503d8060008114612b75576040519150601f19603f3d011682016040523d82523d6000602084013e612b7a565b606091505b5091509150612b8a868383612b95565b925050509392505050565b606082612baa57612ba582612c24565b612c1c565b60008251148015612bd2575060008473ffffffffffffffffffffffffffffffffffffffff163b145b15612c1457836040517f9996b315000000000000000000000000000000000000000000000000000000008152600401612c0b91906134fc565b60405180910390fd5b819050612c1d565b5b9392505050565b600081511115612c375780518082602001fd5b6040517f1425ea4200000000000000000000000000000000000000000000000000000000815260040160405180910390fd5b6000604051905090565b600080fd5b600080fd5b60007fffffffff0000000000000000000000000000000000000000000000000000000082169050919050565b612cb281612c7d565b8114612cbd57600080fd5b50565b600081359050612ccf81612ca9565b92915050565b600060208284031215612ceb57612cea612c73565b5b6000612cf984828501612cc0565b91505092915050565b60008115159050919050565b612d1781612d02565b82525050565b6000602082019050612d326000830184612d0e565b92915050565b6000819050919050565b612d4b81612d38565b82525050565b6000602082019050612d666000830184612d42565b92915050565b612d7581612d38565b8114612d8057600080fd5b50565b600081359050612d9281612d6c565b92915050565b60008060408385031215612daf57612dae612c73565b5b6000612dbd85828601612d83565b9250506020612dce85828601612d83565b9150509250929050565b6000819050919050565b612deb81612dd8565b82525050565b6000602082019050612e066000830184612de2565b92915050565b600073ffffffffffffffffffffffffffffffffffffffff82169050919050565b6000612e3782612e0c565b9050919050565b612e4781612e2c565b8114612e5257600080fd5b50565b600081359050612e6481612e3e565b92915050565b600060208284031215612e8057612e7f612c73565b5b6000612e8e84828501612e55565b91505092915050565b6000606082019050612eac6000830186612d42565b612eb96020830185612d42565b612ec66040830184612d42565b949350505050565b612ed781612dd8565b8114612ee257600080fd5b50565b600081359050612ef481612ece565b92915050565b600060208284031215612f1057612f0f612c73565b5b6000612f1e84828501612ee5565b91505092915050565b6000819050919050565b6000612f4c612f47612f4284612e0c565b612f27565b612e0c565b9050919050565b6000612f5e82612f31565b9050919050565b6000612f7082612f53565b9050919050565b612f8081612f65565b82525050565b6000602082019050612f9b6000830184612f77565b92915050565b60008060408385031215612fb857612fb7612c73565b5b6000612fc685828601612ee5565b9250506020612fd785828601612e55565b9150509250929050565b600080fd5b6000601f19601f8301169050919050565b7f4e487b7100000000000000000000000000000000000000000000000000000000600052604160045260246000fd5b61302f82612fe6565b810181811067ffffffffffffffff8211171561304e5761304d612ff7565b5b80604052505050565b6000613061612c69565b905061306d8282613026565b919050565b600080fd5b600080fd5b600080fd5b600067ffffffffffffffff82111561309c5761309b612ff7565b5b6130a582612fe6565b9050602081019050919050565b82818337600083830152505050565b60006130d46130cf84613081565b613057565b9050828152602081018484840111156130f0576130ef61307c565b5b6130fb8482856130b2565b509392505050565b600082601f83011261311857613117613077565b5b81356131288482602086016130c1565b91505092915050565b60006bffffffffffffffffffffffff82169050919050565b61315281613131565b811461315d57600080fd5b50565b60008135905061316f81613149565b92915050565b61317e81612d02565b811461318957600080fd5b50565b60008135905061319b81613175565b92915050565b600067ffffffffffffffff8211156131bc576131bb612ff7565b5b6131c582612fe6565b9050602081019050919050565b60006131e56131e0846131a1565b613057565b9050828152602081018484840111156132015761320061307c565b5b61320c8482856130b2565b509392505050565b600082601f83011261322957613228613077565b5b81356132398482602086016131d2565b91505092915050565b6000610120828403121561325957613258612fe1565b5b613264610120613057565b9050600082013567ffffffffffffffff81111561328457613283613072565b5b61329084828501613103565b600083015250602082013567ffffffffffffffff8111156132b4576132b3613072565b5b6132c084828501613103565b60208301525060406132d484828501613160565b60408301525060606132e884828501613160565b60608301525060806132fc84828501612d83565b60808301525060a061331084828501612d83565b60a08301525060c06133248482850161318c565b60c08301525060e061333884828501612e55565b60e08301525061010082013567ffffffffffffffff81111561335d5761335c613072565b5b61336984828501613214565b6101008301525092915050565b6000806040838503121561338d5761338c612c73565b5b600061339b85828601612e55565b925050602083013567ffffffffffffffff8111156133bc576133bb612c78565b5b6133c885828601613242565b9150509250929050565b6000604082840312156133e8576133e7612fe1565b5b6133f26040613057565b9050600061340284828501612d83565b600083015250602061341684828501612d83565b60208301525092915050565b60008060008060008060008060006101408a8c03121561344557613444612c73565b5b60006134538c828d01612e55565b99505060206134648c828d01612e55565b98505060406134758c828d01612e55565b97505060606134868c828d01612e55565b96505060806134978c828d01612e55565b95505060a06134a88c828d016133d2565b94505060e06134b98c828d01612e55565b9350506101006134cb8c828d01612d83565b9250506101206134dd8c828d01612d83565b9150509295985092959850929598565b6134f681612e2c565b82525050565b600060208201905061351160008301846134ed565b92915050565b600061352282612f53565b9050919050565b61353281613517565b82525050565b600060208201905061354d6000830184613529565b92915050565b60006040828403121561356957613568612c73565b5b6000613577848285016133d2565b91505092915050565b600063ffffffff82169050919050565b61359981613580565b81146135a457600080fd5b50565b6000813590506135b681613590565b92915050565b6000806000606084860312156135d5576135d4612c73565b5b60006135e386828701612e55565b93505060206135f486828701612d83565b9250506040613605868287016135a7565b9150509250925092565b600061361a82612f53565b9050919050565b61362a8161360f565b82525050565b60006020820190506136456000830184613621565b92915050565b600061365682612f53565b9050919050565b6136668161364b565b82525050565b6000602082019050613681600083018461365d565b92915050565b600060408201905061369c6000830185612d42565b6136a96020830184612d42565b9392505050565b600081519050919050565b600082825260208201905092915050565b60005b838110156136ea5780820151818401526020810190506136cf565b60008484015250505050565b6000613701826136b0565b61370b81856136bb565b935061371b8185602086016136cc565b61372481612fe6565b840191505092915050565b600061374a61374561374084613131565b612f27565b612d38565b9050919050565b61375a8161372f565b82525050565b600060a08201905061377560008301886134ed565b818103602083015261378781876136f6565b9050818103604083015261379b81866136f6565b90506137aa6060830185613751565b6137b760808301846134ed565b9695505050505050565b6000815190506137d081612e3e565b92915050565b6000602082840312156137ec576137eb612c73565b5b60006137fa848285016137c1565b91505092915050565b600060408201905061381860008301856134ed565b6138256020830184613751565b9392505050565b60008151905061383b81613175565b92915050565b60006020828403121561385757613856612c73565b5b60006138658482850161382c565b91505092915050565b600060c08201905061388360008301896134ed565b61389060208301886134ed565b61389d6040830187613751565b6138aa60608301866134ed565b6138b76080830185612d42565b6138c460a0830184612d42565b979650505050505050565b6000819050919050565b600067ffffffffffffffff82169050919050565b60006139086139036138fe846138cf565b612f27565b6138d9565b9050919050565b613918816138ed565b82525050565b6000602082019050613933600083018461390f565b92915050565b7f4e487b7100000000000000000000000000000000000000000000000000000000600052601160045260246000fd5b600061397382612d38565b915061397e83612d38565b925082820190508082111561399657613995613939565b5b92915050565b6139a581613131565b82525050565b600081519050919050565b600082825260208201905092915050565b60006139d2826139ab565b6139dc81856139b6565b93506139ec8185602086016136cc565b6139f581612fe6565b840191505092915050565b600061016082019050613a16600083018e6134ed565b613a23602083018d6134ed565b613a30604083018c612d42565b613a3d606083018b612d42565b613a4a608083018a61399c565b613a5760a083018961399c565b613a6460c0830188612d42565b613a7160e0830187612d42565b613a7f610100830186612d0e565b613a8d6101208301856134ed565b818103610140830152613aa081846139c7565b90509c9b505050505050505050505050565b600081519050613ac181612d6c565b92915050565b600060208284031215613add57613adc612c73565b5b6000613aeb84828501613ab2565b91505092915050565b6000606082019050613b0960008301866134ed565b613b1660208301856134ed565b613b236040830184612d42565b949350505050565b600081519050613b3a81612ece565b92915050565b600060208284031215613b5657613b55612c73565b5b6000613b6484828501613b2b565b91505092915050565b6000613b7882612d38565b9150613b8383612d38565b9250828203905081811115613b9b57613b9a613939565b5b92915050565b6000604082019050613bb660008301856134ed565b613bc36020830184612d42565b9392505050565b613bd381613580565b82525050565b6000608082019050613bee60008301876134ed565b613bfb6020830186613bca565b613c086040830185612d42565b613c156060830184612d42565b95945050505050565b600060e082019050613c33600083018a6134ed565b613c4060208301896134ed565b613c4d6040830188612d42565b613c5a6060830187612d42565b613c676080830186612d42565b613c7460a0830185612d42565b613c8160c0830184612d42565b98975050505050505050565b6000604082019050613ca260008301856134ed565b613caf6020830184612de2565b9392505050565b6000613cc182612d38565b9150613ccc83612d38565b9250828202613cda81612d38565b91508282048414831517613cf157613cf0613939565b5b5092915050565b7f4e487b7100000000000000000000000000000000000000000000000000000000600052601260045260246000fd5b6000613d3282612d38565b9150613d3d83612d38565b925082613d4d57613d4c613cf8565b5b828204905092915050565b600081905092915050565b6000613d6e826139ab565b613d788185613d58565b9350613d888185602086016136cc565b80840191505092915050565b6000613da08284613d63565b91508190509291505056fea26469706673582212203a6f14ac24a45460b1a03b248522870682ff4e5b3b706a512e44b602df953ba964736f6c63430008180033",
  "linkReferences": {},
  "deployedLinkReferences": {}
}